:10003F000000000000000000FF080808FF000E1578
:10004F00151509007E0102007E0102000E11110E2E
:10005F0000007D0000000000000000000000000014
:10000300E4F509F50A1200E1E4F508E5082509908D
:10001300003F93FDAF0812009C0508E508C3940850
:1000230040E9050AE50AD3940A40DDE4F50A050927
:0C003300E509D3942840D1E4F50980CC05
:1000C000EF1FAC0670011E4C600A7D027CC7DCFE8F
:0400D000DDFC80ECE7
:0100D4002209
:02006F00AD07DB
:10007100E4FB74807E00A803088006CEA2E713CEBD
:1000810013D8F8FFEDF582EF558224FF92B4D2B672
:0A009100C2B60BBB08DCD2B5C2B545
:01009B002242
:0500E100C2B6C2B52209
:10009C00AE05AC07AF0612006FAF047480A807085A
:1000AC008002C313D8FCF4F5807F017E001200C0DF
:0400BC007580FF222A
:030000000200D526
:0C00D500787FE4F6D8FD75810A02000374
:00000001FF
