:1004CB00EF1FAC0670011E4C600A7D027CC7DCFE80
:0404DB00DDFC80ECD8
:0104DF0022FA
:06050600C2A58F80D2A700
:08050C007F027EEFDEFEDFFC42
:0105140022C4
:0A052100C2A6120506C2A702050CCF
:10047A00CFCDCFCECCCE12029C7C007D0A12029C3C
:04048A00ED2430FF2E
:0A048E00D2A6120506C2A702050C53
:1004B500AE07BE0104ED148006BE0209ED243F44DB
:0604C50080FF1205212258
:1004E0007F381205217F0C1205217F061205217F1E
:0404F00001020521DF
:0A052B00AC031204B5AF0402048E05
:060457008B088A09890AE6
:10045D001204B5E4FDAB08AA09A90A8D82758300C3
:0C046D0012025DFF600612048E0D80E993
:010479002260
:0C0424007F0AEA24FFFDE434FFFC7E00A8
:080430008E0D8F0E8C0F8D1054
:100438007F017E00E4FBEBC39510E50F6480F87440
:0E0448008098500AAC0DAD0E12028A0B80E8AF
:010456002283
:040498008A0A8B0B36
:10049C001204B5AA0CEAD39400400D120424AC0A41
:0804AC00AD0B12047A1A80ED79
:0104B4002225
:100379001204B5C3EA64809480400B7F2B12048E6B
:100389008A168B17800E7F2D12048EC3E49BF517F6
:10039900E49AF516AA15EAD39400400D120424AC88
:0903A90016AD1712047A1A80ED5A
:0103B2002228
:0403B3008A1A8B1BFC
:1003B7001204B5AA1CEAD3940040297F1012042620
:1003C700AC1AAD1BCFCDCFCECCCE12029CEF540FC3
:1003D700FEC3940AEE5004243080022437FF12042F
:0403E7008E1A80D119
:0103EB0022EF
:0403EC008A1F8B20B9
:1003F0001204B5AA21EAD394004028EA24FFFDE4C0
:1004000034FFFC7F027E00120430AC1FAD20CFCD44
:10041000CFCECCCE12029CEF54012430FF12048EBA
:030420001A80D26D
:0104230022B6
:1004F40050617373576F72643A004F4B200045523A
:020504005200A3
:10018C001204E07BFF7A0479F47D017F011204579D
:10019C001202F18F24E52460F7D3940A5041C3E591
:1001AC00239404E52294005036AE25AF267C007DC6
:1001BC000A12028A8E258F26E52475F00A84E5F052
:1001CC002526F526E43525F5250523E523700205BE
:1001DC0022750C04AB26AA257D017F02120498E53A
:1001EC0024640B7036E526B4290DE525B409087B8B
:1001FC00FF7A0479FE80067BFF7A0579027D0E7FFB
:10020C0001120457E4F525F526F522F523750C04A7
:10021C00AB26AA257D017F02120498E524640C60AC
:10022C000302019CAE25AF26FC7D0A12029C8E2592
:10023C008F26E52345226008E5231523700215223D
:10024C00750C04AB26AA257D017F021204980201CD
:01025C009C05
:10000300E4F5277590FFC2972093137F14FE120423
:10001300CB3093FD7F147E001204CB752701209211
:10002300147F147E001204CB3092FD7F147E0012E5
:1000330004CB7527022091147F147E001204CB3069
:1000430091FD7F147E001204CB7527032090147F4B
:10005300147E001204CB3090FD7F147E001204CB7B
:100063007527047590FFC2962093147F147E0012A7
:1000730004CB3093FD7F147E001204CB752705203B
:1000830092147F147E001204CB3092FD7F147E0005
:100093001204CB7527062091147F147E001204CB23
:1000A3003091FD7F147E001204CB75270720901436
:1000B3007F147E001204CB3090FD7F147E00120467
:1000C300CB7527087590FFC2952093147F147E008B
:1000D3001204CB3093FD7F147E001204CB752709E5
:1000E3002092147F147E001204CB3092FD7F147E85
:1000F300001204CB75270A2091147F147E0012048A
:10010300CB3091FD7F147E001204CB75270B20901A
:10011300147F147E001204CB3090FD7F147E0012F6
:1001230004CB75270C7590FFC2942093147F147E23
:10013300001204CB3093FD7F147E001204CB75278D
:100143000D2092147F147E001204CB3092FD7F1495
:100153007E001204CB75270E2091147F147E0012AB
:1001630004CB3091FD7F147E001204CB75270F2042
:1001730090147F147E001204CB3090FD7F147E0018
:080183001204CB752710AF2711
:01018B002251
:1002F100E4F508F50975900FE590640F60777F0AC2
:100301007E001204CBE590640F606A75900FAF9088
:10031100EF24F5601024FE6011146013240770129D
:10032100750901800D75090280087509038003753F
:1003310009047590F0AF90EF2450601124E0601132
:1003410024F0601124707013850909800E740480F3
:100351000674088002740C2509F509C3E508648058
:1003610094B25011E59064F0600B7F0A7E00120494
:07037100CB050880E6AF098F
:010378002262
:03000000020515E1
:0C051500787FE4F6D8FD75812702018C88
:10025D00BB010CE58229F582E5833AF583E0225056
:10026D0006E92582F8E622BBFE06E92582F8E222A0
:0D027D00E58229F582E5833AF583E49322BA
:10028A00EF8DF0A4A8F0CF8CF0A428CE8DF0A42E88
:02029A00FE2242
:10029C00BC000BBE0029EF8DF084FFADF022E4CC46
:1002AC00F875F008EF2FFFEE33FEEC33FCEE9DEC0F
:1002BC00984005FCEE9DFE0FD5F0E9E4CEFD22ED55
:1002CC00F8F5F0EE8420D21CFEADF075F008EF2F9F
:1002DC00FFED33FD4007985006D5F0F222C398FD90
:0502EC000FD5F0EA222D
:00000001FF
