:10017500E4FD7F0112008F1200F28F12E51260F785
:100185007F647E00120153AD127F0112008F80E75C
:10019500EF1FAC0670011E4C600A7D027CC7DCFEB9
:0401A500DDFC80EC11
:0101A9002233
:1000F200E4F51320B1137F14FE12019530B1FD7F98
:10010200147E0012019575130120B0147F147E0035
:1001120012019530B0FD7F147E0012019575130215
:1001220020B2147F147E0012019530B2FD7F147E3E
:100132000012019575130320B3147F147E0012017F
:100142009530B3FD7F147E00120195751304AF1331
:01015200228A
:0C01AA000A083F065B4F666D7D077F6F03
:10008F00EF14B4080050549000A475F003A4C58376
:10009F0025F0C583730200BC0200C00200C4020039
:1000AF00C80200CC0200D40200DC0200E4D2A4801B
:1000BF000ED2A48012D2A48016D2A4801AC2A4D2C7
:1000CF00A3D2A28016C2A4D2A3C2A2800EC2A4C27F
:1000DF00A3D2A28006C2A4C2A3C2A274082DF8E6BE
:0300EF00F5802277
:0501B700007FE3DFFE04
:0101BC002220
:04015300AD07AC0642
:10015700E4FBFAED25E0FFEC33FEC3EB9FEA9E508C
:0D0167000CB2A51201B70BBB00010A80E627
:010174002268
:03000000020003F8
:0C000300787FE4F6D8FD75811302004AF6
:10000F00020175E493A3F8E493A34003F68001F291
:10001F0008DFF48029E493A3F85407240CC8C333F2
:10002F00C4540F4420C8834004F456800146F6DFC1
:10003F00E4800B01020408102040809001AAE47EA6
:10004F00019360BCA3FF543F30E509541FFEE493B6
:10005F00A360010ECF54C025E060A840B8E493A37D
:10006F00FAE493A3F8E493A3C8C582C8CAC583CAA8
:10007F00F0A3C8C582C8CAC583CADFE9DEE780BE60
:0101B6000048
:00000001FF
