:02004100AD0709
:10004300E4FB74807E00A803088006CEA2E713CEEB
:1000530013D8F8FFEDF582EF558224FF92B4D2B6A0
:0A006300C2B60BBB08DCD2B5C2B573
:01006D002270
:10006E00AE05AC07AF06120041AF047480A80708B6
:10007E008002C313D8FCF4F5807F017E001200923B
:04008E007580FF2258
:10000300C2B6C2B57D38E4FF12006E7D7C7F01125B
:10001300006E7D7E7F0212006E7D3F7F0312006EB5
:100023007D3F7F0412006E7D7E7F0512006E7D7C16
:0E0033007F0612006E7D387F0712006E80C6B9
:10009200EF1FAC0670011E4C600A7D027CC7DCFEBD
:0400A200DDFC80EC15
:0100A6002237
:030000000200A754
:0C00A700787FE4F6D8FD758107020003A5
:00000001FF
