:10000E0012038C1203F48F28E528B4010CE5277037
:10001E00047F0180027F008F27E528B40207E4F5F4
:10002E0025F524F526E5286403702CE525FD7C00D6
:10003E00E4FF1203127F057E001203B9E524FD7C56
:10004E00007F011203127F057E001203B9E526FD23
:10005E007C007F02120312E528B40415E4FF12029D
:10006E00928F257F011202928F247F021202928FAD
:10007E0026E52575F00A84FD7F01120003E525753E
:10008E00F00A84ADF07F021200037D0B7F03120095
:10009E0003E52475F00A84FD7F04120003E5247540
:1000AE00F00A84ADF07F051200037D0B7F0612006F
:1000BE0003E52675F00A84FD7F07120003E5267519
:0D00CE00F00A84ADF07F081200030200115B
:1002EB00E52760220526E526C394644019E4F5262C
:1002FB000524E524943C400EE4F5240525E52594DE
:07030B003C4003E4F525224C
:03000B000200DB15
:1000DB00C0E0C0F0C083C082C0D075D000C000C0EB
:0D00EB0001C002C003C004C005C006C0076C
:1000F800758CFC758A17051FE51F7002051EC394D1
:1001080014E51E94004009751E00751F001202595F
:100118000521E52170020520C39402E520940040E2
:10012800097520007521001203710523E52370026B
:100138000522C3940AE5229400400975220075231C
:04014800001202EBB4
:10014C00D007D006D005D004D003D002D001D00007
:0B015C00D0D0D082D083D0F0D0E032B1
:1003B900EF1FAC0670011E4C600A7D027CC7DCFE93
:0403C900DDFC80ECEB
:0103CD00220D
:0503F400E4AF2BF52B26
:0103F90022E1
:1003A300E4FF20B1010F20B0027F0220B2027F03DD
:0503B30020B3027F04ED
:0103B8002222
:1002590085292A1203A38F29E52A7008E529B40103
:1002690003752B01E52A7008E529B40203752B02F1
:10027900E52A7008E529B40303752B03E52A7008FC
:08028900E529B40403752B0400
:01029100224A
:100354000909000A0A0A0A0A0A0A0A0C123F065B79
:0C0364004F666D7D077F6F0040010801AF
:0700030074092FF8A6052285
:1001F300E4F580EF14B40800505490020B75F0033B
:10020300A4C58325F0C583730202230202270202D9
:100213002B02022F02023302023B02024302024B71
:10022300D2A4800ED2A48012D2A48016D2A4801AA3
:10023300C2A4D2A3D2A28016C2A4D2A3C2A2800E09
:10024300C2A4C2A3D2A28006C2A4C2A3C2A2741231
:060253002DF8E6F5802203
:1003710074092508F8E6FDAF081201F30508D3E575
:0A03810008648094884003750801A9
:01038B00224F
:10038C005389F0438901758A66758CFCC28DD28CB9
:07039C00D2A9D2AFC2B922C1
:100312008F2C8C2D8D2E1203E47FA01202C21203A9
:10032200CEAF2C1202C21203CEAF2E1202C21203A1
:04033200CE0203ED07
:020292008F2CAF
:100294001203E47FA01202C21203CEAF2C1202C2D8
:1002A4001203CE1203E47FA11202C21203CE120380
:0D02B400368F2D7F011203DA1203EDAF2DFE
:0102C100221A
:0903E400D2A0D2A1C2A0C2A12244
:0703ED00C2A0D2A1D2A022A0
:0202C200AD0786
:1002C400E4FB74807E00A803088006CEA2E713CE68
:1002D40013D8F8FFEDF582EF558224FF92A0D2A146
:0602E400C2A10BBB08DC07
:0102EA0022F1
:10033600E4FFD2A0FED2A130A00D7480A8060880EA
:0D03460002C313D8FC4207C2A10EBE08E896
:010353002287
:0A03DA00EF24FF92A0D2A1C2A122DD
:0B03CE00D2A0D2A1A2A0E433FFC2A184
:0103D9002201
:0300000002016793
:0C016700787FE4F6D8FD75812E0201AE11
:1001730002000EE493A3F8E493A34003F68001F294
:1001830008DFF48029E493A3F85407240CC8C3338D
:10019300C4540F4420C8834004F456800146F6DF5C
:1001A300E4800B0102040810204080900354E47E95
:1001B300019360BCA3FF543F30E509541FFEE49351
:1001C300A360010ECF54C025E060A840B8E493A318
:1001D300FAE493A3F8E493A3C8C582C8CAC583CA43
:1001E300F0A3C8C582C8CAC583CADFE9DEE780BEFB
:01037000008C
:00000001FF
