:100F2000543A0054483A00544C3A00252E32660098
:0F0F30004F563A48004F563A4C002020202000E0
:100AC1001210627FE87E0312102AE4FF120DE58FF7
:100AD1001A7F01120DE58F0AD3E51A648094FD5047
:100AE10016C3E50A64809449400DD3E50A6480F891
:100AF100E51A6480985006751A1E750A0A12103F8D
:100B01007BFF7A0F79207D017F01120EDB7BFF7A5B
:100B11000F79237D017F02120EDB7BFF7A0F79278C
:100B21007D097F02120EDBE51AFB3395E0FA75268B
:100B3100037D047F02120CCEE50AFB3395E0FA75C2
:100B410026037D0C7F02120CCE120FE71210AE8F1E
:100B510019121062120E158F188E178D168C1575BD
:100B610025FF75260F75272B8F2B8E2A8D298C2813
:100B71007B007A00790B1206AE7B007A00790B7D3F
:100B8100037F01120EDBE5197003020C26B4010E7E
:100B9100051AD3E51A648094FD4003751A7DE519A1
:100BA100B40211151AD3E50A6480F8E51A64809835
:100BB1005002051AE519B40311050AC3E51A648048
:100BC100F8E50A6480984002150AE519B4040E1587
:100BD1000AC3E50A648094495003750AC9E51AFB02
:100BE1003395E0FA7526037D047F02120CCEE50AE7
:100BF100FB3395E0FA7526037D0C7F02120CCEE5DE
:100C01001AFD3395E0FCE4FF120EB77F057E00125A
:100C1100102AE50AFD3395E0FC7F01120EB77F052E
:100C21007E0012102AAC1AEC120131AB18AA17A9D6
:100C310016A8151200AE600A40087BFF7A0F7930C2
:100C41008019AC0AEC120131AB18AA17A916A81524
:100C51001200AE50107BFF7A0F79357D0D7F0112A6
:100C61000EDB020B4D7BFF7A0F793A7D0D7F01126E
:050C71000EDB020B4D3B
:03000B00020C766E
:100C7600C0E0C0F0C083C082C0D075D000C000C044
:0D0C860001C002C003C004C005C006C007C5
:100C9300758CFC758A170509E50970020508C3946C
:100CA30014E50894004009750800750900120D4108
:100CB300D007D006D005D004D003D002D001D00095
:0B0CC300D0D0D082D083D0F0D0E0323F
:100EB7008F228C238D241210A57FA0120E411210B1
:100EC7006FAF22120E4112106FAF24120E41121093
:040ED7006F020003A3
:020DE5008F225B
:100DE7001210A57FA0120E4112106FAF22120E41F2
:100DF70012106F1210A57FA1120E4112106F120F61
:0D0E07003F8F237F01121087120003AF23DD
:010E140022BB
:10102A00EF1FAC0670011E4C600A7D027CC7DCFE15
:04103A00DDFC80EC6D
:01103E00228F
:0D106200120F987FCC120EFE7F44020EFE8E
:100E1500120F987FCC120EFE7FBE120EFE120E919F
:100E25008F22120E91EFFEE522FFFDAC06EC1201BA
:0B0E35002CE4FBFA79807841120011D8
:010E4000228F
:0910A500D2A0D2A1C2A0C2A12276
:07000300C2A0D2A1D2A0228D
:020E4100AD07FB
:100E4300E4FB74807E00A803088006CEA2E713CEDD
:100E530013D8F8FFEDF582EF558224FF92A0D2A1BB
:060E6300C2A10BBB08DC7C
:010E69002266
:100F3F00E4FFD2A0FED2A130A00D7480A8060880D5
:0D0F4F0002C313D8FC4207C2A10EBE08E881
:010F5C002272
:0A108700EF24FF92A0D2A1C2A12223
:0B106F00D2A0D2A1A2A0E433FFC2A1D6
:01107A002253
:06105300C2A58F80D2A7A8
:081059007F027EEFDEFEDFFCEA
:01106100226C
:0A109100C2A6121053C2A7021059A4
:100F5D00CFCDCFCECCCE1205B97C007D0A1205B90E
:040F6D00ED2430FF40
:0A0F7100D2A6121053C2A7021059B5
:100FFE00AE07BE0104ED148006BE0209ED243F4487
:06100E0080FF1210912288
:10103F007F381210917F0C1210917F061210917F42
:04104F0001021091F9
:0A109B00AC03120FFEAF04020F7148
:060EDB008B228A2389240A
:100EE100120FFEE4FDAB22AA23A9248D8275830093
:0C0EF100120568FF6006120F710D80E909
:010EFD0022D2
:0C0DB2007F0AEA24FFFDE434FFFC7E0011
:080DBE008E298F2A8C2B8D2C4D
:100DC6007F017E00E4FBEBC3952CE52B6480F87471
:0E0DD6008098500AAC29AD2A1205A70B80E8C0
:010DE40022EC
:040F7B008A1D8B1E22
:100F7F00120FFEAA1FEAD39400400D120DB2AC1D42
:080F8F00AD1E120F5D1A80ED8A
:010F97002237
:100CCE00120FFEC3EA64809480400B7F2B120F71CB
:100CDE008A278B28800E7F2D120F71C3E49BF52877
:100CEE00E49AF527AA26EAD39400400D120DB2AC71
:090CFE0027AD28120F5D1A80EDEC
:010D070022C9
:040D08008A408B4151
:100D0C00120FFEAA42EAD3940040297F10120DB4B0
:100D1C00AC40AD41CFCDCFCECCCE1205B9EF540FF8
:100D2C00FEC3940AEE5004243080022437FF120FC5
:040D3C00711A80D1D7
:010D40002290
:040D7A008A458B46D5
:100D7E00120FFEAA47EAD394004028EA24FFFDE4AE
:100D8E0034FFFC7F027E00120DBEAC45AD46CFCDCA
:100D9E00CFCECCCE1205B9EF54012430FF120F7115
:030DAE001A80D2D6
:010DB100221F
:100F9800C2AFD2B7C2B71210B4D2B71210B9A2B743
:0B0FA800E433F5231210B4D2AFAF23E6
:010FB300221B
:100FD0008F25C2AFC2B71210BEE52524FF92B7120B
:070FE00010C3D2B7D2AF220B
:100FB400C2AFC2B77F02DFFED2B77F02DFFEA2B7A5
:0B0FC400E433F5251210C3D2AFAF25B7
:010FCF0022FF
:020EFE008F2340
:100F0000E4F524AF247401A807088002C333D8FC99
:0F0F10005523FF120FD00524E524C3940840E4B5
:010F1F0022AF
:100E9100E4F524F523120FB4EF600FAF237401A81A
:100EA10007088002C333D8FC42240523E523C394F9
:050EB1000840E2AF243F
:010EB6002219
:0410B4007FE3DFFEF9
:0110B8002215
:0410B9007F1DDFFEBA
:0110BD002210
:0410BE007F02DFFED0
:0110C200220B
:0410C3007F14DFFEB9
:0110C7002206
:0510AE00E4AF4AF54A21
:0110B300221A
:10101400E4FF20B1010F20B0027F0220B2027F035F
:0510240020B3027F046F
:0110290022A4
:100D41008548491210148F48E5497008E548B401F7
:100D510003754A01E5497008E548B40203754A0282
:100D6100E5497008E548B40303754A03E54970088D
:080D7100E548B40403754A04CF
:010D79002257
:100FE7005389F0438901758A66758CFCC28DD28C52
:070FF700D2A9D2AFC2B9225A
:10000E000201A4EC5D046005E85904700302019A34
:10001E00120165580460F6EC4860F2EC7004FDFEC7
:10002E00FF22C860DB2481C85009C39860025006C5
:10003E000201A19850CAF582E9294B4A7005AB829C
:10004E0002019075F0007C1A7880C3EF9BEE9AED5A
:10005E0099400DC3EF9BFFEE9AFEED99FDE842F03D
:10006E00DC23ACF0D0E0FFD0E0FED0E0FDAB822090
:10007E00E7101BEB60BAEC2CFCEF33FFEE33FEED1A
:10008E0033FD02017CE803F830E705C0F075F0009F
:10009E00EF2FFFEE33FEED33FD40B830E7C280AAFE
:1000AE0074F8CC6480CCC86480C8F58204604FC3F9
:1000BE00EB9FF5F0EA9E42F0E99D42F0E89C45F098
:1000CE00603C501DE5825FFFE582D313CB5BCBF422
:1000DE002B5582FB50280ABA002409B9002008804B
:1000EE001DE5825BFBE582D313CF5FCFF4C3132FE5
:1000FE005582FF50090EBE00050DBD00010CC3EB6D
:10010E009FF5F0EA9E42F0E99D42F0E89C45F060D2
:09011E0007CC4820E701B3EC22F4
:1001270075F020800E75F010800575F0087D007E53
:10013700007F003392D530D50312060EEC33401002
:10014700EF33FFEE33FEED33FDEC33FCD5F0ED225C
:0E015700E5F0247EA2D513CC92E7CDCEFF2298
:10065200E5392425F8E60539227822300702782583
:10066200E475F00112061C02054F2000EB7F2ED22A
:10067200008018EF540F2490D43440D4FF30040B80
:10068200EF24BFB41A0050032461FFE53A6002155B
:100692003A053DE53D7002053C30070D7822E475D0
:1006A200F00112061CEF020595020E6A7403D207CE
:1006B2008003E4C207F5398B228A238924E4F53AC0
:1006C200F53CF53DE53A60077F2012068D80F57511
:1006D2003BFFC201C200C202C203C205C206C20877
:1006E20012065BFF700D3007057F0012069EAF3DBC
:1006F200AE3C22B4255FC2D5C20412065BFF24D0F1
:10070200B40A00501A75F00A783A30D50508B6FFD7
:100712000106C6A426F620D5047002D20380D9248D
:10072200CFB41A00EF5004C2E5D20402098BD20101
:1007320080C6D20080C0D20280BCD2D580BAD20597
:1007420080B47F2012068D2002077401B53A004062
:10075200F1120652FF12068D0206C6D208D2068098
:1007620095120652FB120652FA120652F94A4B70C1
:100772000679827A0A7BFF20022EE53A602A7E0001
:100782008E8275830012056860060EEE653B70F07E
:10079200C2D5EBC0E0EAC0E0E9C0E0EE1209EBD05E
:1007A200E0F9D0E0FAD0E0FB12054FFF60AAEBC0FF
:1007B200E0EAC0E0E9C0E012068DD0E02401F9D001
:1007C200E03400FAD0E0FBE53B0460DCD53BD980A5
:1007D20087D20280A21209CE60F7E53B70010412B3
:1007E20001AFA93B600DE53B600914F53B120A75A8
:1007F200EF60F3EA30E702F404C3995077EAF42594
:100802003B0430E701E404F53B800D1209CE60C1E0
:10081200EA053B253B1201AFEA7838F630E701E4FE
:10082200253B04D53B04200501141209EBE4C0E08A
:10083200120A757838E6601320E70714F612067577
:10084200802204F6D0E014C0E07F00120675E53B7A
:10085200600712066C153B800B30050312066CD044
:10086200E00206C6D0E00480C51209CE60A0E53BD6
:10087200041201AF7838EAF6E53B20050260010474
:0508820024041209EB43
:1008870074FF04C0E0120A75120675E53B200502E5
:10089700600312066CD0E0B53BE87F4512067F780F
:1008A70038E67F2B30E7047F2DF404C0E012068D75
:1008B700D0E075F00A84C0F0120676D0E012067612
:1008C7000206C6791080027908C206C2088008D2DB
:1008D700D5790A8004790AC2D5E53B047002F53B55
:1008E700E4FAFDFEFF120652FC7B082001131206F4
:1008F70052FD7B1030000A120652FE120652FF7B91
:1009070020EC3382D592D55013C3E43000069FFF05
:10091700E49EFEE42001039DFDE49CFCE4CBF8C2C9
:1009270001EC700CCFCECDCCE824F8F870F380172B
:10093700C3EF33FFEE33FEED33FDEC33FCEB33FB5C
:10094700994002FB0FD8E9EB300105F8D0E0C44825
:10095700B201C0E00AEC4D4E4F78207B0070C2EA2E
:10096700B53B0040BCC0E01209EDD0F0D0E020015B
:1009770004C4C0E0C4B201C0F0120676D0F0D5F0CE
:10098700EB0206C612062C07635308CA5807344CF5
:1009970007304208CE4F08D64408D64907494308CE
:1009A700DC55080D46086B4507D7470AA25007389C
:1009B7002D073C2E075F2B074023075D200A8B2A54
:1009C70006F84800000757E53BB4FF03753B0612DE
:1009D7000652FC120652FD120652FE120652FF780C
:1009E700310201DE790AA2D5200314300509B910B6
:1009F700020404B9080104A2D5200602500104200C
:100A070002689202B53A005034C0E07F20300319E3
:100A17007F30A20272067205500F120A44C202C248
:100A270006C205C2087F30800F300503E9C0E01217
:100A3700068D300503D0E0F9D0E0B53ACC30051784
:100A47007F30B9100C12068D7F583004077F7880ED
:100A570003B9080312068D3002057F2D02068D7F2C
:100A6700202008F87F2B2006F322920280CF7F00F8
:100A7700B4070050052431F8E6FF22286E756C6C28
:100A87002900D2011206523001F8C201783A30D556
:100A97000108F60206F82D5043495812065224035E
:100AA700B405004001E4900A9D9312067E743A1241
:0A0AB700067ED203753A040208CA55
:10016500E9D2E7C933E833F892D5EDD2E7CD33ECE0
:0701750033FC5002B2D52259
:10017C00EC30E7100FBF000C0EBE00080DBD0004E4
:10018C000BEB6014A2D5EB13FCED92E7FD2274FF90
:10019C00FCFDFEFF22E480F8A2D574FF13FC7D80E9
:0301AC00E480EFFD
:1001AF00F920E72824F950037907E4F42402FB1817
:1001BF00DBFDE624FB5014E9600DE4F618E604F6C7
:0F01CF00B40A08E4F6D9F57401F60A22C2D52263
:1001DE00ED33EC3392D5FA602AB4FF33EDC2E77BF0
:1001EE00FF60067A027903E4227A02790C20D504A4
:1001FE007A027907224E614E002B494E46002D4958
:10020E004E4600E47A08F608DAFC7B00740722E812
:10021E00C0E0ECC0E0EDC0E0EEC0E0EFC0E0EA759B
:10022E00F010A4CAABF075F04DA42BFBE435F0FC36
:10023E00EA2410FAEB34C5FBEC34D9FCEDC2E7FF2F
:10024E0075F056A4F42411C5F0F434C58FF0A42A29
:10025E00E5F03BE43CF620E71412050FD0E0FFD0AA
:10026E00E0FED0E0FDD0E0FC1200118014F4041288
:10027E00050FD0E0FFD0E0FED0E0FDD0E0FC120391
:10028E00D9D0E0F8E6FAEDD2E7CD33EC332482FB99
:10029E00E4C3CF33CFCE33CECD33CD33DBF37B07B9
:1002AE0075F00A846004F6081B0AE5F0F6088FF074
:1002BE00740AA4FFACF08EF0740AA42CFEACF050BD
:1002CE00010C8DF0740AA42CFDE435F0F608DBDE8B
:0302DE0074072280
:1002E10002019AE86480F8E933E83360110460F0B0
:1002F100ED33EC337009E8FCE9FDEAFEEBFF220483
:1003010060DED3EB9FEA9EE99DE8C2E78CF0C2F77D
:1003110095F0400CE8CCF8E9CDF9EACEFAEBCFFB49
:1003210012016585D0F05804700320D5B3E804703C
:10033100075002B2D50201A492D5EC0460F7E4CCD7
:10034100C0E0C398F8603B94186008400DD0E0FB12
:1003510002017CE4FBFAC9FC8028E830E406E4C928
:10036100FBE4CAFCE830E305E4C9CACBFCE8540766
:100371006010F8C3E913F9EA13FAEB13FBEC13FC71
:10038100D8F130F52FC3E49CFCEF9BFFEE9AFEED14
:1003910099FDD0E0FBEF4E4D4C701222DB030201C0
:1003A100A1EC2CFCEF33FFEE33FEED33FDED30E736
:1003B100EB02017CEF2BFFEE3AFEED39FDD0E0FBC5
:1003C10050130BBB00030201A4ED13FDEE13FEEF6E
:0803D10013FFEC13FC02017C98
:1003D900EC4D6011E8497017ED33EC3304600DE41E
:1003E900FCFFFEFD22E933E8330470F802019A129A
:1003F900016558046009E4CC24815006285009029B
:1004090001A42840030201A1C0E0EB4A7044B9806D
:1004190006D0E0FB020190EF4E701CBD8008EBFF97
:10042900EAFEE9FD80EBE98DF0A4FEE5F00204C2E5
:10043900E9CDF9EAFEEBFFEF89F0A4FCE5F0CE89FE
:10044900F0A42EFFE435F0CD89F0A42DFEE435F0BB
:100459008067EF4E7005BD80D780C3EF8BF0A4ACE9
:10046900F0EE8BF0A42CFCE435F0F8EF8AF0A42C24
:10047900E5F038FCE433CB8DF0A42CFCE5F03BF837
:10048900EE8AF0A42CFCE5F038F8E433CF89F0A427
:100499002CFCE5F038CF3400CE89F0A42FFFE5F02D
:1004A9003EFEE433C98DF0A42EFEE5F039CD8AF085
:1004B900A42FFFE5F03EFEE43DFD33D0E0FB5007FD
:1004C9000BBB000F0201A4EC2CFCEF33FFEE33FE53
:0604D900ED33FD02017C81
:1004DF003F8000004120000042C80000447A000025
:1004EF00461C400047C35000497424004B189680A7
:1004FF004CBEBC205A0E1BCA6753C21C749DC5AE9E
:10050F00FB60065407601C232312053DEB54386033
:10051F00091205291205381203D9ECF8EDF9EEFA94
:10052F00EFCB22EB12053880F1543803241C9004D2
:10053F00DFFE93FC0EEE93FD0EEE930ECE93FF2295
:0300000002107B70
:0C107B00787FE4F6D8FD75814A020AC1B6
:10054F00BB010689828A83E0225002E722BBFE02AA
:09055F00E32289828A83E49322DD
:10056800BB010CE58229F582E5833AF583E0225048
:1005780006E92582F8E622BBFE06E92582F8E22292
:0D058800E58229F582E5833AF583E49322AC
:10059500BB010689828A83F0225002F722BBFE0145
:0205A500F3223F
:1005A700EF8DF0A4A8F0CF8CF0A428CE8DF0A42E68
:0205B700FE2222
:1005B900BC000BBE0029EF8DF084FFADF022E4CC26
:1005C900F875F008EF2FFFEE33FEEC33FCEE9DECEF
:1005D900984005FCEE9DFE0FD5F0E9E4CEFD22ED35
:1005E900F8F5F0EE8420D21CFEADF075F008EF2F7F
:1005F900FFED33FD4007985006D5F0F222C398FD70
:050609000FD5F0EA220C
:0E060E00C3E49FFFE49EFEE49DFDE49CFC22FD
:10061C00FAE6FB0808E6F925F0F618E6CA3AF622DF
:10062C00D083D082F8E4937012740193700DA3A35D
:10063C0093F8740193F5828883E473740293686071
:06064C00EFA3A3A380DF71
:100E6A00EFB40A07740D120E75740A309811A89916
:100E7A00B8130CC2983098FDA899C298B811F630E8
:070E8A0099FDC299F59922C0
:00000001FF
