:0E071D001206E112073A12072B12059C80FB10
:03000B00020336B7
:10033600C0E0C0F0C083C082C0D075D000C000C08D
:0D03460001C002C003C004C005C006C0070E
:10035300758CFC758A17055EE55E7002055DC394B6
:10036300F4E55D94014009755D00755E00120419A2
:100373000560E5607002055FC3941EE55F9400406D
:0A03830009755F0075600012052B7C
:10038D00D007D006D005D004D003D002D001D000C4
:0B039D00D0D0D082D083D0F0D0E0326E
:1004810020280D0100000000000000000000000015
:10049100000000000000000000000000000000005B
:1004A10000000000000000000000002028350100CD
:1004B100000000000000000000000000000000003B
:1004C100000000000000000000000000000000002B
:0604D10000000000000025
:1003A8008D6AEF14B4080050679003BF75F003A47A
:1003B800C58325F0C583730203D70203DF0203E771
:1003C8000203EF0203F70203FF02040702040FE52A
:1003D8006A14FF7D808036E56A14FF7D40802EE533
:1003E8006A14FF7D208026E56A14FF7D10801EE5D3
:1003F8006A14FF7D088016E56A14FF7D04800EE507
:100408006A14FF7D028006E56A14FF7D0112065A10
:0104180022C1
:10063400E4F569E569C3950A5015740D2569F8E672
:10064400FF74352569F8E6FD1203A8056980E4AD59
:0606540009AF080203A833
:10041900E50A14FFEFD39400401B740C2FF8E6FE95
:10042900740D2FF8A60674342FF8E6FE74352FF8EC
:10043900A6061F80DFE50B14601714602114602BDA
:1004490024037033150DE50DC39401502A750D0869
:10045900220535E535D39408401D75350122050D72
:10046900E50DD394084010750D01221535E535C306
:0704790094015003753508E2
:010480002259
:10056400E50C603324FE6014146019146020240325
:100574007025E50B6402601FE4F50B22E50B6017A0
:10058400750B0222E50B6401600D750B0322E50B6C
:0805940064036003750B0122F2
:1005D4001204DE740C250AF8E67C002FFFEC3EFEC4
:1005E4007D08120223ED04F5081204DE7434250A92
:1005F400F8E67C002FFFEC3EFE7D08120223ED049A
:03060400F50922D3
:10070D00E50DB5080AE535B50905050A1205D4222A
:1006A0007F04EFC3950A5018740D2FF8E6B50D0DB1
:1006B00074352FF8E6B535057580FF80FE0F80E2B2
:0106C0002217
:09072B00750A02750B020205D4E7
:10059C001204DE1205641206341206A012070D12A4
:1005AC0000038F0CE4F568E568C3950A5019740DC7
:1005BC002568F8E6B5080C74352568F8E6B5090326
:0705CC001205D4056880E070
:0105D3002205
:1006F800EF1FAC0670011E4C600A7D027CC7DCFE51
:04070800DDFC80ECA8
:01070C0022CA
:02060700AD073D
:10060900E4FB74807E00A803088006CEA2E713CE1F
:1006190013D8F8FFEDF582EF558224FF92B4D2B6D4
:0A062900C2B60BBB08DCD2B5C2B5A7
:0106330022A4
:05073A00C2B6C2B522A9
:10065A00AE05AC07AF06120607AF047480A80708F8
:10066A008002C313D8FCF4F5807F017E001206F8DD
:04067A007580FF2266
:1006E1005389F0438901758A66758CFCC28DD28C61
:0706F100D2A9D2AFC2B92269
:0604D70001650001660052
:10000E00E4F56D7590FFC2972093137F14FE1206D0
:10001E00F83093FD7F147E001206F8756D01209264
:10002E00147F147E001206F83092FD7F147E0012AB
:10003E0006F8756D022091147F147E001206F830BA
:10004E0091FD7F147E001206F8756D032090147FCB
:10005E00147E001206F83090FD7F147E001206F812
:10006E00756D047590FFC2962093147F147E001256
:10007E0006F83093FD7F147E001206F8756D05208C
:10008E0092147F147E001206F83092FD7F147E00CB
:10009E001206F8756D062091147F147E001206F874
:1000AE003091FD7F147E001206F8756D07209014B6
:1000BE007F147E001206F83090FD7F147E0012062B
:1000CE00F8756D087590FFC2952093147F147E000D
:1000DE001206F83093FD7F147E001206F8756D0936
:1000EE002092147F147E001206F83092FD7F147E4B
:1000FE00001206F8756D0A2091147F147E00120608
:10010E00F83091FD7F147E001206F8756D0B20906D
:10011E00147F147E001206F83090FD7F147E0012BC
:10012E0006F8756D0C7590FFC2942093147F147EA3
:10013E00001206F83093FD7F147E001206F8756DDE
:10014E000D2092147F147E001206F83092FD7F145B
:10015E007E001206F8756D0E2091147F147E00122B
:10016E0006F83091FD7F147E001206F8756D0F2093
:10017E0090147F147E001206F83090FD7F147E00DE
:08018E001206F8756D10AF6D4B
:010196002246
:1002AE00E4F56BF56C75900FE590640F60777F0A3F
:1002BE007E001206F8E590640F606A75900FAF909D
:1002CE00EF24F5601024FE601114601324077012E1
:1002DE00756C01800D756C028008756C038003755A
:1002EE006C047590F0AF90EF2450601124E0601113
:1002FE0024F0601124707013856C6C800E74048071
:10030E000674088002740C256CF56CC3E56B648072
:10031E0094B25011E59064F0600B7F0A7E001206D5
:07032E00F8056B80E6AF6CDF
:0103350022A5
:1006C100E4FF7590FFC2952091010F7590FFC294D0
:0F06D1002091027F022092027F032090027F047B
:0106E00022F7
:10052B008566651206C18F66E5657008E566B401E0
:10053B0003756701E5657008E566B402037567022C
:10054B00E5657008E566B40303756703E565700838
:08055B00E566B40403756704B2
:010563002275
:05000300AF67E4F567A2
:0100080022D5
:05073400007FE3DFFE81
:01073900229D
:04067E00AD07AC0612
:10068200E4FBFAED25E0FFEC33FEC3EB9FEA9E505C
:0D0692000CB2A51207340BBB00010A80E674
:01069F002238
:0300000002019763
:0C019700787FE4F6D8FD75816D0201DE72
:10022300C2D5EC30E709B2D5E4C39DFDE49CFCEEF6
:1002330030E715B2D5E4C39FFFE49EFE120259C313
:10024300E49DFDE49CFC800312025930D507C3E40E
:060253009FFFE49EFE2265
:1004DE00AC61AD62AE63AF647810EC4D4E4F7004FC
:1004EE007CA57DA5C3EC13FCED13FDEE13FEEF13FF
:1004FE00FF5010EC64CCFCED644CFDEE644EFEEF50
:10050E0064CEFFD8DF8C618D628E638F64EE547F74
:0D051E00FE228E618F6274A5F563F56422E4
:1001A30002071DE493A3F8E493A34003F68001F24E
:1001B30008DFF48029E493A3F85407240CC8C3335D
:1001C300C4540F4420C8834004F456800146F6DF2C
:1001D300E4800B0102040810204080900481E47E37
:1001E300019360BCA3FF543F30E509541FFEE49321
:1001F300A360010ECF54C025E060A840B8E493A3E8
:10020300FAE493A3F8E493A3C8C582C8CAC583CA12
:10021300F0A3C8C582C8CAC583CADFE9DEE780BECA
:0104DD00001E
:10025900BC000BBE0029EF8DF084FFADF022E4CC89
:10026900F875F008EF2FFFEE33FEEC33FCEE9DEC52
:10027900984005FCEE9DFE0FD5F0E9E4CEFD22ED98
:10028900F8F5F0EE8420D21CFEADF075F008EF2FE2
:10029900FFED33FD4007985006D5F0F222C398FDD3
:0502A9000FD5F0EA2270
:00000001FF
