:10035A00414444522020434D4420204E554D003004
:0E036A00302020202030302020203030300085
:1001E6001203DE7BFF7A03795A7D017F0112033702
:1001F6007BFF7A0379697D017F021203371204704F
:10020600120411EF700612041EEF60F41204768FCA
:100216002B1204798F2AE52BFB7A007518027D01D3
:100226007F02120293E52AFB7A007518027D077F8A
:1002360002120293E52AB415021529E52AB4090229
:100246000529E529FB7A007518037D0C7F02120348
:030256009680ADE2
:1003C900EF1FAC0670011E4C600A7D027CC7DCFE83
:0403D900DDFC80ECDB
:0103DD0022FD
:06040200C2A58F80D2A705
:080408007F027EEFDEFEDFFC47
:0104100022C9
:0A044D00C2A6120402C2A7020408AE
:10037800CFCDCFCECCCE1201917C007D0A12019157
:04038800ED2430FF31
:0A038C00D2A6120402C2A702040860
:1003B300AE07BE0104ED148006BE0209ED243F44DE
:0603C30080FF12044D2230
:1003DE007F3812044D7F0C12044D7F0612044D7FA0
:0403EE000102044DB7
:0A045700AC031203B3AF0402038CE0
:060337008B148A158916E3
:10033D001203B3E4FDAB14AA15A9168D82758300C3
:0C034D00120152FF600612038C0D80E9C3
:010359002281
:0C0304007F0AEA24FFFDE434FFFC7E00C9
:080310008E198F1A8C1B8D1C45
:100318007F017E00E4FBEBC3951CE51B6480F87449
:0E0328008098500AAC19AD1A12017F0B80E8C4
:0103360022A4
:040396008A168B1721
:10039A001203B3AA18EAD39400400D120304AC1650
:0803AA00AD171203781A80ED73
:0103B2002228
:100259001203B3C3EA64809480400B7F2B12038C92
:100269008A228B23800E7F2D12038CC3E49BF523F6
:10027900E49AF522AA21EAD39400400D120304ACB2
:0902890022AD231203781A80ED66
:010292002249
:040293008A168B1725
:100297001203B3AA18EAD3940040297F1012030669
:1002A700AC16AD17CFCDCFCECCCE120191EF540FF8
:1002B700FEC3940AEE5004243080022437FF120351
:0402C7008C1A80D13C
:0102CB002210
:0402CC008A268B27CC
:1002D0001203B3AA28EAD394004028EA24FFFDE4DD
:1002E00034FFFC7F027E00120310AC26AD27CFCD79
:1002F000CFCECCCE120191EF54012430FF12038CEB
:030300001A80D28E
:0103030022D7
:0B043700D288C289D2A8D2AFD2B8226E
:1003F2005389F0438901E4F58AF58CC28DC28C22BF
:0B044200AD07AC068C8CAF058F8A2242
:09046100AF8CEFFEAD8AEDFF2225
:06046A00EF24FF928C223A
:060470001203F202043742
:0D041100E5086006E4F5087F01227F002267
:0D041E00E5136006E4F5137F01227F002244
:03047600AF1122A1
:03047900AF10229F
:03000300020006F2
:10000600C0E0C0F0C083C082C0D075D000C000C0C0
:1000160001C002C003C004C005C006C007E50D70DC
:100026000CFFFE1204427F0112046A8049E50D644A
:100036000170491204618E0E8F0FE4FFFE12044216
:10004600D3E50F94A6E50E942E4010E50F948EE5A9
:100056000E94325006750D02020137D3E50F948CCB
:10006600E50E94264010E50F9474E50E942A50068A
:1000760075130102012F750D01020137E50D6402AA
:1000860060030201371204618E0E8F0FE4FFFE1229
:100096000442D3E50F946CE50E9402402CE50F94D0
:1000A60054E50E94065022E512131313541F240927
:1000B600F8C000E6FFE5125407FE7401A8060880A2
:1000C60002C333D8FCF45F8034D3E50F94D6E50E33
:1000D60094064030E50F94BEE50E940A5026E512CC
:1000E600131313541F2409F8C000E6FFE512540742
:1000F600FE7401A806088002C333D8FC4FD000F670
:1001060005128006751200750D01E512C394204094
:1001160020751200E50AF4B5090FE50CF4B50B09D4
:10012600850911850B10750801E4FF12046A750D27
:1001360000D007D006D005D004D003D002D001D01D
:0C01460000D0D0D082D083D0F0D0E032C6
:0300000002042BCC
:0C042B00787FE4F6D8FD75812B0201E615
:10015200BB010CE58229F582E5833AF583E0225062
:1001620006E92582F8E622BBFE06E92582F8E222AC
:0D017200E58229F582E5833AF583E49322C6
:10017F00EF8DF0A4A8F0CF8CF0A428CE8DF0A42E94
:02018F00FE224E
:10019100BC000BBE0029EF8DF084FFADF022E4CC52
:1001A100F875F008EF2FFFEE33FEEC33FCEE9DEC1B
:1001B100984005FCEE9DFE0FD5F0E9E4CEFD22ED61
:1001C100F8F5F0EE8420D21CFEADF075F008EF2FAB
:1001D100FFED33FD4007985006D5F0F222C398FD9C
:0501E1000FD5F0EA2239
:00000001FF
