:1000C30075A0FE1200DA12000E8F0AE50AB401F6DB
:0700D300050B530B0180EF48
:03000B0002006F81
:0B006F00C0E0C0D075D000C000C0078A
:10007A00758CFC758A170509E50970020508C39491
:10008A00F4E50894014029750800750900E50B702C
:10009A000DAFA07801EF08800123D8FDF5A0E50B8C
:1000AA00B4010DAFA07801EF08800103D8FDF5A0D7
:0900BA00D007D000D0D0D0E03214
:1000DA005389F0438901758A66758CFCC28DD28C6E
:0700EA00D2A9D2AFC2B92276
:10000E00E4F50C20B1137F14FE1200F130B1FD7F28
:10001E00147E001200F1750C0120B0147F147E00C6
:10002E001200F130B0FD7F147E001200F1750C024B
:10003E0020B2147F147E001200F130B2FD7F147EC8
:10004E00001200F1750C0320B3147F147E00120011
:10005E00F130B3FD7F147E001200F1750C04AF0C6D
:01006E00226F
:1000F100EF1FAC0670011E4C600A7D027CC7DCFE5E
:04010100DDFC80ECB5
:0101050022D7
:03000000020106F4
:0C010600787FE4F6D8FD75810C0200C380
:00000001FF
