:10009A00202C270000F88CF95BFA15FA67FB04FBA1
:1000AA0090FC0CFC44FC9FFD09FD34FD82FDC8FE5A
:1000BA0006FE22FE56FE85FE9AFEC1FEE4FF031DE1
:1000CA0008080408040C040C040D040D040C080BA5
:0E00DA00040B040A040A04090409040808FFC0
:10012C0012016074082525F8E6FFF460238F26057C
:10013C002574082525F8E675F07DA4FFAEF01201B4
:10014C00770525C28C7F057E00120177D28C80D377
:04015C00C28C80FED3
:03000B000200E907
:1000E900C0E0C0D075D000C000C004C005C006C0C3
:1000F90007E52625E02427F8E6FE08E64E6015E523
:100109002625E02427F8E6FC08E6FDECF58CAF058A
:100119008F8AB2A5D007D006D005D004D000D0D0A0
:03012900D0E032F1
:10017700EF1FAC0670011E4C600A7D027CC7DCFED7
:04018700DDFC80EC2F
:01018B002251
:100160005389F0438901758A66758CFCC28DD28CE7
:07017000D2A9D2AFC2B922EF
:0300000002000EED
:0C000E00787FE4F6D8FD758152020055A1
:10001A0002012CE493A3F8E493A34003F68001F2CF
:10002A0008DFF48029E493A3F85407240CC8C333E7
:10003A00C4540F4420C8834004F456800146F6DFB6
:10004A00E4800B010204081020408090009AE47EAC
:10005A00019360BCA3FF543F30E509541FFEE493AB
:10006A00A360010ECF54C025E060A840B8E493A372
:10007A00FAE493A3F8E493A3C8C582C8CAC583CA9D
:10008A00F0A3C8C582C8CAC583CADFE9DEE780BE55
:0100E8000017
:00000001FF
