:1003ED001204ED7BB17D017F011205457BB27D02CB
:1003FD007F011205457BBC7D037F011205457BC343
:10040D007D047F011205457BD97D057F01120545D0
:02041D0080FE5F
:09054F0025750025640025580003
:06051500C2A58F80D2A7F1
:09051B00007F027EC7DEFEDFFC5A
:0105240022B4
:0A053100C2A6120515C2A702051BA1
:0A053B00D2A6120515C2A702051B87
:1004ED007F381205317F0C1205317F061205317FE1
:0404FD0001020531C2
:040501008B828A83DC
:10050500EDBF0103148002243F4480FF1205312210
:0A054500AC03120505AF0402053BEC
:0604CA008B1C8A1D891E37
:1004D000120505E4FDAB1CAA1DA91E8D82758300C3
:0C04E00012035FFF600612053B0D80E96F
:0104EC0022ED
:04041F008F2A8D2B68
:10042300120501750BFF750C05750D4F85830E8540
:10043300820F7B007A00792C12005F7B007A0079AF
:080443002CAD2BAF2A0204CA04
:04044B008F228D234C
:10044F00120501750BFF750C05750D5285830E8511
:10045F00820F7B007A00792412005F7B007A00798B
:08046F0024AD23AF220204CAF0
:040477008F318D3202
:10047B00120501750BFF750C05750D5585830E85E2
:10048B00820F7B007A00793312005F7B007A007950
:08049B0033AD32AF310204CA97
:03000000020525D1
:0C052500787FE4F6D8FD7581360203ED06
:10035F00BB010CE58229F582E5833AF583E0225053
:10036F0006E92582F8E622BBFE06E92582F8E2229D
:0D037F00E58229F582E5833AF583E49322B7
:10000300E517240BF8E60517227808300702780B6A
:10001300E475F0011203B702038C2000EB7F2ED2AC
:10002300008018EF540F2490D43440D4FF30040BD5
:10003300EF24BFB41A0050032461FFE518600215D2
:1000430018051BE51B7002051A30070D7808E475C7
:10005300F0011203B7EF0203A50204A37403D2074E
:100063008003E4C207F5178B088A09890AE4F518A7
:10007300F51AF51BE51860077F2012003E80F57521
:1000830019FFC201C200C202C203C205C206C208EE
:1000930012000CFF700D3007057F0012004FAF1BDD
:1000A300AE1A22B4255FC2D5C20412000CFF24D0BD
:1000B300B40A00501A75F00A781830D50508B6FF4F
:1000C3000106C6A426F620D5047002D20380D924E3
:1000D300CFB41A00EF5004C2E5D20402024FD2019A
:1000E30080C6D20080C0D20280BCD2D580BAD205ED
:1000F30080B47F2012003E2002077401B51800402F
:10010300F1120003FF12003E020077D208D20680EC
:1001130095120003FB120003FA120003F94A4B7015
:100123000679207A037BFF20022EE518602A7E00E1
:100133008E8275830012035F60060EEE651970F000
:10014300C2D5EBC0E0EAC0E0E9C0E0EE120296D00F
:10015300E0F9D0E0FAD0E0FB12038CFF60AAEBC019
:10016300E0EAC0E0E9C0E012003ED0E02401F9D0AB
:10017300E03400FAD0E0FBE5190460DCD519D9803E
:10018300877BFF7A027992D202809C791080027970
:1001930008C206C2088008D2D5790A8004790AC247
:1001A300D5E519047002F519E4FAFDFEFF12000308
:1001B300FC7B08200113120003FD7B1030000A12A0
:1001C3000003FE120003FF7B20EC3382D592D5504F
:1001D30013C3E43000069FFFE49EFEE42001039D69
:1001E300FDE49CFCE4CBF8C201EC700CCFCECDCC8B
:1001F300E824F8F870F38017C3EF33FFEE33FEED16
:1002030033FDEC33FCEB33FB994002FB0FD8E9EBF6
:10021300300105F8D0E0C448B201C0E00AEC4D4E0D
:100223004F78207B0070C2EAB5190040BCC0E012D1
:100233000298D0F0D0E0200104C4C0E0C4B201C0F1
:10024300F0120027D0F0D5F0EB0200771203C701BC
:100253001453018E5800E54C00E14201924F019A7C
:0F02630044019A4900FA4301A0550184460184E1
:100272004501844703405000E92D00ED2E01102B6B
:1002820000F123010E2003292A00A94800000108D9
:100292003F3F3F00790AA2D5200314300509B91067
:1002A200020404B9080104A2D52006025001042068
:1002B20002689202B518005034C0E07F2030031962
:1002C2007F30A20272067205500F1202EFC202C202
:1002D20006C205C2087F30800F300503E9C0E01274
:1002E200003E300503D0E0F9D0E0B518CC30051758
:1002F2007F30B9100C12003E7F583004077F78809F
:1003020003B9080312003E3002057F2D02003E7F32
:10031200202008F87F2B2006F322920280CF286E3D
:10032200756C6C2900D2011200033001F8C2017809
:100332001830D50108F60200A92D50434958120081
:10034200032403B405004001E490033B9312002F01
:0D035200743A12002FD20375180402018EB8
:10038C00BB010689828A83E0225002E722BBFE026F
:09039C00E32289828A83E49322A2
:1003A500BB010689828A83F0225002F722BBFE0137
:0203B500F32231
:1003B700FAE6FB0808E6F925F0F618E6CA3AF62247
:1003C700D083D082F8E4937012740193700DA3A3C5
:1003D70093F8740193F5828883E4737402936860D9
:0603E700EFA3A3A380DFD9
:1004A300EFB40A07740D1204AE740A309811A899B8
:1004B300B8130CC2983098FDA899C298B811F630B9
:0704C30099FDC299F5992291
:00000001FF
