:1009680020200020202D20202D20200020203A208B
:05097800203A202000E0
:100605001204ECE518FB3395E0FA750C027D017FC9
:100615000112091EE519FB3395E0FA750C027D04FC
:100625007F0112091EE51AFB3395E0FA750C027D70
:10063500077F0112091EE51BFB3395E0FA750C02D5
:100645007D017F0212091EE51CFB3395E0FA750C4E
:10065500027D047F0212091EE51DFB3395E0FA7544
:090665000C027D077F0202091E50
:10000E00E524B4020B0521E52175F0068485F02167
:10001E00E5246403600302010874182521F806D351
:10002E00E518648094E34003E4F518D3E519648081
:10003E00948C4003751901E51964016023E5196478
:10004E0003601DE51964056017E51964076011E585
:10005E00196408600BE519640A6005E519B40C0B08
:10006E00D3E51A6480949F406D8068E5196404603E
:10007E0011E5196406600BE51964096005E519B40C
:10008E000B0BD3E51A6480949E404B8046E51964B1
:10009E00027043E51875F004120320AFF0EF700DF7
:1000AE00E51875F064120320AFF0EF7012AF18EF81
:1000BE003395E0FE7C017D901203D6ED4C700BD390
:1000CE00E51A6480949D400E8009D3E51A648094ED
:1000DE009C4003751A01D3E51B648094974003E49A
:1000EE00F51BD3E51C648094BB4003E4F51CD3E5FB
:1000FE001D648094BB4003E4F51DE5246404600395
:10010E0002022674182521F816C3E518648094801F
:10011E005003751863C3E5196480948150037519F3
:10012E000CE51964016023E5196403601DE519648B
:10013E00056017E51964076011E5196408600BE5A1
:10014E0019640A6005E519B40C1BC3E51A648094A2
:10015E00815003751A1FD3E51A6480949F500302D1
:10016E0002020201FFE51964046011E519640660DC
:10017E000BE51964096005E519B40B17C3E51A649C
:10018E008094815003751A1ED3E51A6480949E40A4
:10019E0063805EE5196402705BE51875F004120366
:1001AE0020AFF0EF700DE51875F064120320AFF07C
:1001BE00EF7012AF18EF3395E0FE7C017D901203C5
:1001CE00D6ED4C7017C3E51A648094815003751AEE
:1001DE001DD3E51A6480949D401A8015C3E51A64F8
:1001EE008094815003751A1CD3E51A6480949C4048
:1001FE0003751A01C3E51B648094805003751B17A9
:10020E00C3E51C648094805003751C3BC3E51D64DC
:10021E008094805003751D3BE5217014E523B401D5
:10022E000F7BFF7A0979687D017F011208DD80114D
:10023E00E518FB3395E0FA750C027D017F0112097A
:10024E001EE521B40114E523B4010F7BFF7A097971
:10025E00687D047F011208DD8011E519FB3395E0FE
:10026E00FA750C027D047F0112091EE521B40214F9
:10027E00E523B4010F7BFF7A0979687D077F0112B0
:10028E0008DD8011E51AFB3395E0FA750C027D0747
:10029E007F0112091EE521B40314E523B4010F7B7F
:1002AE00FF7A0979687D017F021208DD8011E51B56
:1002BE00FB3395E0FA750C027D017F0212091EE5F3
:1002CE0021B40414E523B4010F7BFF7A0979687D0C
:1002DE00047F021208DD8011E51CFB3395E0FA75F0
:1002EE000C027D047F0212091EE521B40512E523DE
:1002FE00B4010D7BFF7A0979687D077F020208DD64
:10030E00E51DFB3395E0FA750C027D077F0212099D
:02031E001E229D
:1006CF0012099212000312093B7BFF7A09796B7DA5
:1006DF00017F011208DD7BFF7A0979747D017F02AA
:1006EF001208DD12040C12066E8F24E524B40116D5
:1006FF00E5227007752201F521800BE522B4010672
:10070F00E4F52212040CE5221460080470D81206D6
:08071F000580D312000E80CE0C
:03000B00020800E8
:09080000C0E0C0D075D000C007B3
:10080900758CFC758A170520E5207002051FC394B5
:10081900C8E51F94004012751F00752000E523707C
:09082900047F0180027F008F238F
:07083200D007D0D0D0E03266
:0609A600C2A58F80D2A75C
:0809AC007F027EEFDEFEDFFC9E
:0109B4002220
:0A09B500C2A61209A6C2A70209ACEF
:10090000CFCDCFCECCCE1203817C007D0A120381E5
:04091000ED2430FFA3
:0A091400D2A61209A6C2A70209AC80
:10095200AE07BE0104ED148006BE0209ED243F4439
:0609620080FF1209B5221E
:100992007F381209B57F0C1209B57F061209B57F9F
:0409A200010209B590
:0A09BF00AC03120952AF0402091440
:0608DD008B088A09890A5C
:1008E300120952E4FDAB08AA09A90A8D8275830097
:0C08F300120342FF60061209140D80E998
:0108FF0022D6
:0C08AA007F0AEA24FFFDE434FFFC7E001E
:0808B6008E0D8F0E8C0F8D10CA
:1008BE007F017E00E4FBEBC39510E50F6480F874B6
:0E08CE008098500AAC0DAD0E12036F0B80E83F
:0108DC0022F9
:04091E008A0A8B0BAB
:10092200120952AA0CEAD39400400D1208AAAC0A8A
:08093200AD0B1209001A80ED63
:01093A00229A
:1007C600120952C3EA64809480400B7F2B120914ED
:1007D6008A168B17800E7F2D120914C3E49BF5171A
:1007E600E49AF516AA15EAD39400400D1208AAACAD
:0907F60016AD171209001A80ED7E
:0107FF0022D7
:040839008A278B2857
:10083D00120952AA29EAD3940040297F101208AC5C
:10084D00AC27AD28CFCDCFCECCCE120381EF540F38
:10085D00FEC3940AEE5004243080022437FF12099F
:04086D00141A80D108
:010871002264
:040872008A2C8B2D14
:10087600120952AA2EEAD394004028EA24FFFDE486
:1008860034FFFC7F027E001208B6AC2CAD2DCFCD16
:10089600CFCECCCE120381EF54012430FF120914BF
:0308A6001A80D2E3
:0108A900222C
:0909C9000718190B1B133B37043E
:07000300C2B5C2B4C2B6226F
:02072700A90720
:10072900D2B5E4FB74017E00A803088005C333CE6B
:1007390033CED8F9FFE9F582EF558224FF92B4D27E
:10074900B6C2B60BBB08DDE4FB74017E00A8030842
:100759008005C333CE33CED8F9FFEDF582EF55824C
:0E07690024FF92B4D2B6C2B60BBB08DDC2B5F7
:01077700225F
:02077800AD07CB
:10077A00E4F9430501D2B5FB74017E00A8030880A1
:10078A0005C333CE33CED8F9FFEDF582EF55822477
:10079A00FF92B4C2B6D2B60BBB08DDE4FBD2B6C236
:1007AA00B630B40D7401A803088002C333D8FC42E2
:0B07BA00010BBB08E8C2B5C2B4AF01E0
:0107C5002211
:10040C00E4FD7F8E120727E51875F00A120320C44D
:10041C0054F0FFE51875F00A120320AEF0EF2EFD34
:10042C007F8C120727E51975F00A120320C454F0CB
:10043C00FFE51975F00A120320AEF0EF2EFD7F8850
:10044C00120727E51A75F00A120320C454F0FFE5D1
:10045C001A75F00A120320AEF0EF2EFD7F861207FC
:10046C0027E51B75F00A120320C454F0FFE51B7539
:10047C00F00A120320AEF0EF2EFD7F84120727E561
:10048C001C75F00A120320C454F0FFE51C75F00A29
:10049C00120320AEF0EF2EFD7F82120727E51D75AB
:1004AC00F00A120320C454F0FFE51D75F00A120384
:1004BC0020AEF0EF2EFD7F80120727E51E75F00AA7
:1004CC00120320C454F0FFE51E75F00A120320AE8F
:1004DC00F0EF2EFD7F8A1207277D807F8E02072783
:1004EC007F8C120778EFC4540F75F00AA4FEEF54FA
:1004FC000F2EF5187F88120778EFC4540F75F00A89
:10050C00A4FEEF540F2EF5197F86120778EFC45412
:10051C000F75F00AA4FEEF540F2EF51A7F84120704
:10052C0078EFC4540F75F00AA4FEEF540F2EF51B90
:10053C007F82120778EFC4540F75F00AA4FEEF54B3
:10054C000F2EF51C7F80120778EFC4540F75F00A3C
:10055C00A4FEEF540F2EF51D7F8A120778EFC454BA
:0C056C000F75F00AA4FEEF540F2EF51ED0
:010578002260
:10097D00EF1FAC0670011E4C600A7D027CC7DCFEC9
:04098D00DDFC80EC21
:010991002243
:10066E00E4F50820B1137F14FE12097D30B1FD7F31
:10067E00147E0012097D75080120B0147F147E00CF
:10068E0012097D30B0FD7F147E0012097D750802BF
:10069E0020B2147F147E0012097D30B2FD7F147ECD
:1006AE000012097D75080320B3147F147E00120911
:1006BE007D30B3FD7F147E0012097D750804AF08EE
:0106CE002209
:10093B005389F0438901758A66758CFCC28DD28C04
:07094B00D2A9D2AFC2B9220C
:030000000205797D
:0C057900787FE4F6D8FD75812E0205C0E5
:10032000C2D530F707B2D563F0FF05F030E70CB265
:10033000D5F4048463F0FF05F080018430D502F425
:02034000042295
:10034200BB010CE58229F582E5833AF583E0225070
:1003520006E92582F8E622BBFE06E92582F8E222BA
:0D036200E58229F582E5833AF583E49322D4
:10036F00EF8DF0A4A8F0CF8CF0A428CE8DF0A42EA2
:02037F00FE225C
:10038100BC000BBE0029EF8DF084FFADF022E4CC60
:10039100F875F008EF2FFFEE33FEEC33FCEE9DEC29
:1003A100984005FCEE9DFE0FD5F0E9E4CEFD22ED6F
:1003B100F8F5F0EE8420D21CFEADF075F008EF2FB9
:1003C100FFED33FD4007985006D5F0F222C398FDAA
:0503D1000FD5F0EA2247
:1003D600C2D5EC30E709B2D5E4C39DFDE49CFCEE42
:1003E60030E715B2D5E4C39FFFE49EFE120381C336
:1003F600E49DFDE49CFC800312038130D507C3E431
:060406009FFFE49EFE22B0
:100585000206CFE493A3F8E493A34003F68001F2B7
:1005950008DFF48029E493A3F85407240CC8C33377
:1005A500C4540F4420C8834004F456800146F6DF46
:1005B500E4800B01020408102040809009C9E47E04
:1005C500019360BCA3FF543F30E509541FFEE4933B
:1005D500A360010ECF54C025E060A840B8E493A302
:1005E500FAE493A3F8E493A3C8C582C8CAC583CA2D
:1005F500F0A3C8C582C8CAC583CADFE9DEE780BEE5
:0109D2000024
:00000001FF
