:1005060020202D20202D20200020203A20203A20B7
:020516002000C3
:100267001204F21205457BFF7A0579067D017F01AD
:100277001204697BFF7A05790F7D017F02120469F9
:1002870012000312014EE518FB7A00750C027D017E
:100297007F011204AAE519FB7A00750C027D047F21
:1002A700011204AAE51AFB7A00750C027D077F018B
:1002B7001204AAE51BFB7A00750C027D017F02126E
:1002C70004AAE51CFB7A00750C027D047F02120468
:1002D700AAE51DFB7A00750C027D077F021204AAAE
:0202E70080A1F4
:06051800C2A58F80D2A7EE
:08051E007F027EEFDEFEDFFC30
:0105260022B2
:0A052700C2A6120518C2A702051EA5
:10048C00CFCDCFCECCCE1200F97C007D0A1200F974
:04049C00ED2430FF1C
:0A04A000D2A6120518C2A702051E1D
:1004C700AE07BE0104ED148006BE0209ED243F44C9
:0604D70080FF1205272240
:1004F2007F381205277F0C1205277F061205277FFA
:0405020001020527C6
:0A053100AC031204C7AF040204A0DB
:060469008B088A09890AD4
:10046F001204C7E4FDAB08AA09A90A8D827583009F
:0C047F001200BAFF60061204A00D80E914
:01048B00224E
:0C0436007F0AEA24FFFDE434FFFC7E0096
:080442008E0D8F0E8C0F8D1042
:10044A007F017E00E4FBEBC39510E50F6480F8742E
:0E045A008098500AAC0DAD0E1200E70B80E842
:010468002271
:0404AA008A0A8B0B24
:1004AE001204C7AA0CEAD39400400D120436AC0A0B
:0804BE00AD0B12048C1A80ED55
:0104C6002213
:10038B001204C7C3EA64809480400B7F2B1204A035
:10039B008A168B17800E7F2D1204A0C3E49BF517D2
:1003AB00E49AF516AA15EAD39400400D120436AC64
:0903BB0016AD1712048C1A80ED36
:0103C4002216
:0403C5008A218B22DC
:1003C9001204C7AA23EAD3940040297F10120438E3
:1003D900AC21AD22CFCDCFCECCCE1200F9EF540F48
:1003E900FEC3940AEE5004243080022437FF12041D
:0403F900A01A80D1F5
:0103FD0022DD
:0403FE008A268B2799
:100402001204C7AA28EAD394004028EA24FFFDE494
:1004120034FFFC7F027E00120442AC26AD27CFCD12
:10042200CFCECCCE1200F9EF54012430FF1204A03B
:030432001A80D25B
:0104350022A4
:09053B000718190B1B133B3704D0
:0302E90025F0FD00
:0202EC00A90760
:1002EE00D2B5E4FB74017E00A803088005C333CEAB
:1002FE0033CED8F9FFE9F582EF558224FF92B4D2BE
:10030E00B6C2B60BBB08DDE4FB74017E00A8030881
:10031E008005C333CE33CED8F9FFEDF582EF55828B
:0E032E0024FF92B4D2B6C2B60BBB08DDC2B536
:01033C00229E
:02033D00AD070A
:10033F00E4F9430501D2B5FB74017E00A8030880E0
:10034F0005C333CE33CED8F9FFEDF582EF558224B6
:10035F00FF92B4C2B6D2B60BBB08DDE4FBD2B6C275
:10036F00B630B40D7401A803088002C333D8FC4221
:0B037F00010BBB08E8C2B5C2B4AF011F
:01038A002250
:10000300E4FD7F8E1202ECE51875F00A84C454F007
:10001300FFE51875F00A84EF7F8C1202E9E5197584
:10002300F00A84C454F0FFE51975F00A84EF7F8861
:100033001202E9E51A75F00A84C454F0FFE51A7553
:10004300F00A84EF25F0FD7F861202ECE51B75F0C4
:100053000A84C454F0FFE51B75F00A84EF25F0FD14
:100063007F841202ECE51C75F00A84C454F0FFE5AA
:100073001C75F00A84EF25F0FD7F821202ECE51D6A
:1000830075F00A84C454F0FFE51D75F00A84EF256A
:10009300F0FD7F801202ECE51E75F00A84C454F073
:1000A300FFE51E75F00A84EF25F0FD7F8A1202EC4E
:0700B3007D807F8E0202EC4C
:10014E007F8C12033DEFC4540F75F00AA4FEEF54DA
:10015E000F2EF5187F8812033DEFC4540F75F00A69
:10016E00A4FEEF540F2EF5197F8612033DEFC454F3
:10017E000F75F00AA4FEEF540F2EF51A7F841203AA
:10018E003DEFC4540F75F00AA4FEEF540F2EF51B6D
:10019E007F8212033DEFC4540F75F00AA4FEEF5494
:1001AE000F2EF51C7F8012033DEFC4540F75F00A1D
:1001BE00A4FEEF540F2EF51D7F8A12033DEFC4549B
:0C01CE000F75F00AA4FEEF540F2EF51E72
:0101DA002202
:07054500C2B5C2B4C2B62228
:1004DD00EF1FAC0670011E4C600A7D027CC7DCFE6E
:0404ED00DDFC80ECC6
:0104F10022E8
:030000000201DB1F
:0C01DB00787FE4F6D8FD7581280202222E
:1000BA00BB010CE58229F582E5833AF583E02250FB
:1000CA0006E92582F8E622BBFE06E92582F8E22245
:0D00DA00E58229F582E5833AF583E493225F
:1000E700EF8DF0A4A8F0CF8CF0A428CE8DF0A42E2D
:0200F700FE22E7
:1000F900BC000BBE0029EF8DF084FFADF022E4CCEB
:10010900F875F008EF2FFFEE33FEEC33FCEE9DECB3
:10011900984005FCEE9DFE0FD5F0E9E4CEFD22EDF9
:10012900F8F5F0EE8420D21CFEADF075F008EF2F43
:10013900FFED33FD4007985006D5F0F222C398FD34
:050149000FD5F0EA22D1
:1001E700020267E493A3F8E493A34003F68001F2C5
:1001F70008DFF48029E493A3F85407240CC8C33319
:10020700C4540F4420C8834004F456800146F6DFE7
:10021700E4800B010204081020408090053BE47E37
:10022700019360BCA3FF543F30E509541FFEE493DC
:10023700A360010ECF54C025E060A840B8E493A3A3
:10024700FAE493A3F8E493A3C8C582C8CAC583CACE
:10025700F0A3C8C582C8CAC583CADFE9DEE780BE86
:0105440000B6
:00000001FF
