:10040500EF1FAC0670011E4C600A7D027CC7DCFE46
:04041500DDFC80EC9E
:0104190022C0
:10000E0011040F020D040F021103120111020F044D
:10001E00000211040F020D040F021103120111024E
:10002E000F04000211040F020D040F02110312013E
:10003E0011020F04000211040F020D040F0211032E
:10004E00120111020F040D010F01110211020F0214
:10005E00120211020F020F020F020D010D01120208
:10006E0011020F020F040D010F01110600061102FD
:10007E0014021901190118041902180419021801A1
:10008E0016011402000214020F02120212041102CF
:10009E00110200020802120211020F0211041402D0
:1000AE000D0600040D020F020D030D010D021402C8
:1000BE000D02120411020F040D020D0600040D01B3
:1000CE000F01110211020F02120211020F020F0292
:1000DE000F020D010D01120211020F020F040D018C
:1000EE000F0111060006110214021902180419025A
:1000FE0018041902180116011402000214020F024C
:10010E00120212041102110200020802120211025E
:10011E000F02110414020D0A0D010D010F020D0242
:10012E0000020D0214020D0212021201120111013F
:10013E000F010F040D020D06000616021402140222
:10014E0014021202120211020F020F020F04140205
:10015E001402120112011202120211020F020F04F6
:10016E000D010C010D0400021602140214021402F9
:10017E001202120211020F020F020F040F021102DD
:10018E00110111011101110111020F0211021B04C3
:10019E0019021902000219021804160216060004AA
:1001AE001602160214021201120112061101120198
:1001BE00140A000611010F0111010F0111011201A4
:1001CE00140412011401160416011801190200027A
:1001DE001B01190114040D02140212021102110462
:1001EE00110111011404000211010F0111010F017F
:1001FE001101120114041201140116041601180142
:10020E001902000219011D021D0200011B011E022E
:10021E001D021B021B03190119011801190200020C
:10022E00140119011B0419021902000214021B0405
:10023E00190219020002140119011B0419021902F4
:10024E000002140119011B031D011B0219020002F9
:10025E0019021904160216041402140412021202D0
:10026E0011020F02110600061102120211021202F1
:08027E0011020F020D0625011B
:10031200204A0A0000F921F980F9E1FA36FA8CFA4A
:10032200D8FB23FB68FBAAFBE9FC23FC5BFC8FFCEC
:10033200C0FCEFFD1BFD45FD6CFD91FDB4FDD5FD3F
:10034200F4FE12FE2EFE47FE60FE78FE8EFEA2FE38
:0D035200B6FEC9FEDAFEEBFEFAFF09FF174A
:100360001203EEE509B42504C28C80FE75F002E5A7
:1003700008A4240EF582E5F03400F583E493F50932
:1003800075F002E508A4240FF582E5F03400F5834A
:10039000E49375F08CA4FFAEF01204050508C28C3E
:0B03A0007F057E00120405D28C80B89F
:03000B000203AB42
:1003AB00C0E0C0D075D000C000C004C005C006C0FE
:1003BB0007E50925E0240AF8E6FE08E64E6015E598
:1003CB000925E0240AF8E6FC08E6FDECF58CAF0500
:1003DB008F8AB2A5D007D006D005D004D000D0D0DC
:0303EB00D0E0322D
:1003EE005389F0438901758CDCE4F58AC28DD28C79
:0703FE00D2A9D2AFC2B9225F
:0300000002028673
:0C028600787FE4F6D8FD7581530202CDAC
:10029200020360E493A3F8E493A34003F68001F21F
:1002A20008DFF48029E493A3F85407240CC8C3336D
:1002B200C4540F4420C8834004F456800146F6DF3C
:1002C200E4800B0102040810204080900312E47EB7
:1002D200019360BCA3FF543F30E509541FFEE49331
:1002E200A360010ECF54C025E060A840B8E493A3F8
:1002F200FAE493A3F8E493A3C8C582C8CAC583CA23
:10030200F0A3C8C582C8CAC583CADFE9DEE780BEDA
:01035F00009D
:00000001FF
