:09030600436C6F636B3A003A008E
:1000A2001202811202C37BFF7A0379067D017F016E
:1000B2001202237BFF7A03790D7D037F0212022352
:1000C2007BFF7A03790D7D067F02120223E51BFB7B
:1000D2007A00750C027D017F02120264E51CFB7A34
:1000E20000750C027D047F02120264E51AFB7A009D
:0C00F200750C027D077F0212026480D1B1
:03000B000200FEF2
:0400FE00C0E0C0D0CE
:10010200758CFC758A170519E51970020518C394D8
:10011200E8E51894034027751800751900051AE5DB
:100122001A943C4019751A00051CE51C943C400EBB
:0E013200751C00051BE51B94184003751B008F
:05014000D0D0D0E03238
:1002AE00EF1FAC0670011E4C600A7D027CC7DCFE9F
:0402BE00DDFC80ECF7
:0102C2002219
:0602D700C2A58F80D2A732
:0802DD007F027EEFDEFEDFFC74
:0102E50022F6
:0A02F200C2A61202D7C2A70202DD65
:10024600CFCDCFCECCCE12004D7C007D0A12004D14
:04025600ED2430FF64
:0A025A00D2A61202D7C2A70202DDED
:10029800AE07BE0104ED148006BE0209ED243F44FA
:0602A80080FF1202F222A9
:1002C3007F381202F27F0C1202F27F061202F27FD3
:0402D300010202F230
:0A02FC00AC03120298AF0402025A8C
:060223008B088A09890A1C
:10022900120298E4FDAB08AA09A90A8D8275830018
:0C02390012000EFF600612025A0D80E950
:010245002296
:0C01F0007F0AEA24FFFDE434FFFC7E00DF
:0801FC008E0D8F0E8C0F8D108B
:100204007F017E00E4FBEBC39510E50F6480F87476
:0E0214008098500AAC0DAD0E12003B0B80E836
:0102220022B9
:040264008A0A8B0B6C
:10026800120298AA0CEAD39400400D1201F0AC0ACD
:08027800AD0B1202461A80EDE5
:01028000225B
:10014500120298C3EA64809480400B7F2B12025AF6
:100155008A168B17800E7F2D12025AC3E49BF51762
:10016500E49AF516AA15EAD39400400D1201F0ACF5
:0901750016AD171202461A80EDC6
:01017E00225E
:04017F008A1F8B2028
:10018300120298AA21EAD3940040297F101201F2A7
:10019300AC1FAD20CFCDCFCECCCE12004DEF540F40
:1001A300FEC3940AEE5004243080022437FF120267
:0401B3005A1A80D183
:0101B7002225
:0401B8008A248B25E5
:1001BC00120298AA26EAD394004028EA24FFFDE410
:1001CC0034FFFC7F027E001201FCAC24AD25CFCDA8
:1001DC00CFCECCCE12004DEF54012430FF12025A78
:0301EC001A80D2A4
:0101EF0022ED
:100281005389F0438901758A66758CFCC28DD28CC5
:07029100D2A9D2AFC2B922CD
:030000000202E613
:0C02E600787FE4F6D8FD7581260200A2A6
:10000E00BB010CE58229F582E5833AF583E02250A7
:10001E0006E92582F8E622BBFE06E92582F8E222F1
:0D002E00E58229F582E5833AF583E493220B
:10003B00EF8DF0A4A8F0CF8CF0A428CE8DF0A42ED9
:02004B00FE2293
:10004D00BC000BBE0029EF8DF084FFADF022E4CC97
:10005D00F875F008EF2FFFEE33FEEC33FCEE9DEC60
:10006D00984005FCEE9DFE0FD5F0E9E4CEFD22EDA6
:10007D00F8F5F0EE8420D21CFEADF075F008EF2FF0
:10008D00FFED33FD4007985006D5F0F222C398FDE1
:05009D000FD5F0EA227E
:00000001FF
