:100CE70054656D70657261747572653A00252E34AE
:020CF700660095
:100A3D00120D087FE87E03120CAB120CC07BFF7AFF
:100A4D000C79E77D017F01120BE5120D08120B6C7D
:100A5D008F158E148D138C127525FF75260C752729
:100A6D00F48F2B8E2A8D298C287B007A0079081221
:100A7D00062A7B007A0079087D017F02120BE58042
:010A8D00C99F
:100CAB00EF1FAC0670011E4C600A7D027CC7DCFE98
:040CBB00DDFC80ECF0
:010CBF002212
:060CF900C2A58F80D2A706
:080CFF007F027EEFDEFEDFFC48
:010D070022C9
:0A0D2100C2A6120CF9C2A7020CFFD3
:100C2A00CFCDCFCECCCE1205357C007D0A1205354C
:040C3A00ED2430FF76
:0A0C3E00D2A6120CF9C2A7020CFFA7
:100C9500AE07BE0104ED148006BE0209ED243F44F3
:060CA50080FF120D212268
:100CC0007F38120D217F0C120D217F06120D217F1E
:040CD00001020D21EF
:0A0D2B00AC03120C95AF04020C3E5D
:060BE5008B228A23892403
:100BEB00120C95E4FDAB22AA23A9248D82758300F8
:0C0BFB001204E4FF6006120C3E0D80E9BD
:010C070022CA
:0C0B39007F0AEA24FFFDE434FFFC7E008C
:080B45008E4D8F4E8C4F8D5038
:100B4D007F017E00E4FBEBC39550E54F6480F874A4
:0E0B5D008098500AAC4DAD4E1205230B80E877
:010B6B002267
:040C48008A408B4112
:100C4C00120C95AA42EAD39400400D120B39AC4019
:080C5C00AD41120C2A1A80EDD3
:010C6400226D
:100A8E00120C95C3EA64809480400B7F2B120C3EAF
:100A9E008A1B8B1C800E7F2D120C3EC3E49BF51C13
:100AAE00E49AF51BAA1AEAD39400400D120B39AC46
:090ABE001BAD1C120C2A1A80ED7C
:010AC700220C
:040AC8008A458B468A
:100ACC00120C95AA47EAD3940040297F10120B3BD5
:100ADC00AC45AD46CFCDCFCECCCE120535EF540FB5
:100AEC00FEC3940AEE5004243080022437FF120C0B
:040AFC003E1A80D14D
:010B000022D2
:040B01008A4A8B4B46
:100B0500120C95AA4CEAD394004028EA24FFFDE490
:100B150034FFFC7F027E00120B45AC4AAD4BCFCDB6
:100B2500CFCECCCE120535EF54012430FF120C3E4A
:030B35001A80D251
:010B3800229A
:100C6500D2B7C2B7120D35D2B7120D3AA2B7E433D7
:070C7500F523120D35AF233A
:010C7C002255
:100CD4008F25C2B7120D3FE52524FF92B7120D44AC
:030CE400D2B72262
:100C7D00C2B77F02DFFED2B77F02DFFEA2B7E43339
:070C8D00F525120D44AF250F
:010C9400223D
:020C08008F2338
:100C0A00E4F524AF247401A807088002C333D8FC92
:0F0C1A005523FF120CD40524E524C3940840E4AD
:010C290022A8
:100BBF00E4F524F523120C7DEF600FAF237401A829
:100BCF0007088002C333D8FC42240523E523C394CE
:050BDF000840E2AF2414
:010BE40022EE
:0D0D0800120C657FCC120C087F44020C0811
:100B6C00120C657FCC120C087FBE120C08120BBF46
:100B7C008F22120BBFEFFEE522FFFDAC06EC12003C
:0B0B8C00A8E4FBFA7980784112000613
:010B9700223B
:040D35007FE3DFFE7B
:010D39002297
:040D3A007F1DDFFE3C
:010D3E002292
:040D3F007F02DFFE52
:010D4300228D
:040D44007F14DFFE3B
:010D48002288
:10000300020120EC5D046005E85904700302011647
:100013001200E1580460F6EC4860F2EC7004FDFE57
:10002300FF22C860DB2481C85009C39860025006D0
:1000330002011D9850CAF582E9294B4A7005AB822B
:1000430002010C75F0007C1A7880C3EF9BEE9AEDE9
:1000530099400DC3EF9BFFEE9AFEED99FDE842F048
:10006300DC23ACF0D0E0FFD0E0FED0E0FDAB82209B
:10007300E7101BEB60BAEC2CFCEF33FFEE33FEED25
:1000830033FD0200F8E803F830E705C0F075F0002F
:10009300EF2FFFEE33FEED33FD40B830E7C280AA09
:1000A30075F020800E75F010800575F0087D007ED8
:1000B300007F003392D530D50312058AEC3340100C
:1000C300EF33FFEE33FEED33FDEC33FCD5F0ED22E1
:0E00D300E5F0247EA2D513CC92E7CDCEFF221D
:1005CE00E5392425F8E60539227822300702782508
:1005DE00E475F0011205980204CB2000EB7F2ED2B9
:1005EE00008018EF540F2490D43440D4FF30040B05
:1005FE00EF24BFB41A0050032461FFE53A600215E0
:10060E003A053DE53D7002053C30070D7822E47554
:10061E00F001120598EF020511020B987403D20730
:10062E008003E4C207F5398B228A238924E4F53A44
:10063E00F53CF53DE53A60077F2012060980F57519
:10064E003BFFC201C200C202C203C205C206C208FB
:10065E001205D7FF700D3007057F0012061AAF3D49
:10066E00AE3C22B4255FC2D5C2041205D7FF24D0FA
:10067E00B40A00501A75F00A783A30D50508B6FF5C
:10068E000106C6A426F620D5047002D20380D92412
:10069E00CFB41A00EF5004C2E5D204020907D2010A
:1006AE0080C6D20080C0D20280BCD2D580BAD2051C
:1006BE0080B47F201206092002077401B53A00406B
:1006CE00F11205CEFF120609020642D208D20680AA
:1006DE00951205CEFB1205CEFA1205CEF94A4B70D5
:1006EE000679FE7A097BFF20022EE53A602A7E000B
:1006FE008E827583001204E460060EEE653B70F088
:10070E00C2D5EBC0E0EAC0E0E9C0E0EE120967D066
:10071E00E0F9D0E0FAD0E0FB1204CBFF60AAEBC008
:10072E00E0EAC0E0E9C0E0120609D0E02401F9D009
:10073E00E03400FAD0E0FBE53B0460DCD53BD98029
:10074E0087D20280A212094A60F7E53B70010412BB
:10075E00012BA93B600DE53B600914F53B1209F135
:10076E00EF60F3EA30E702F404C3995077EAF42518
:10077E003B0430E701E404F53B800D12094A60C1E9
:10078E00EA053B253B12012BEA7838F630E701E407
:10079E00253B04D53B0420050114120967E4C0E093
:1007AE001209F17838E6601320E70714F61205F106
:1007BE00802204F6D0E014C0E07F001205F1E53B84
:1007CE0060071205E8153B800B3005031205E8D0D3
:1007DE00E0020642D0E00480C512094A60A0E53B63
:1007EE000412012B7838EAF6E53B2005026001047D
:0507FE0024041209674C
:1008030074FF04C0E01209F11205F1E53B20050273
:1008130060031205E8D0E0B53BE87F451205FB789D
:1008230038E67F2B30E7047F2DF404C0E01206097D
:10083300D0E075F00A84C0F01205F2D0E01205F2A0
:10084300020642791080027908C206C2088008D2E3
:10085300D5790A8004790AC2D5E53B047002F53BD9
:10086300E4FAFDFEFF1205CEFC7B082001131205FE
:10087300CEFD7B1030000A1205CEFE1205CEFF7BA3
:1008830020EC3382D592D55013C3E43000069FFF8A
:10089300E49EFEE42001039DFDE49CFCE4CBF8C24E
:1008A30001EC700CCFCECDCCE824F8F870F38017B0
:1008B300C3EF33FFEE33FEED33FDEC33FCEB33FBE1
:1008C300994002FB0FD8E9EB300105F8D0E0C448AA
:1008D300B201C0E00AEC4D4E4F78207B0070C2EAB3
:1008E300B53B0040BCC0E0120969D0F0D0E0200164
:1008F30004C4C0E0C4B201C0F01205F2D0F0D5F0D8
:10090300EB0206421205A806DF5308465806B04C10
:1009130006AC42084A4F08524408524906C54308E8
:10092300585507894607E7450753470A1E5006B43B
:100933002D06B82E06DB2B06BC2306D9200A072A70
:10094300067448000006D3E53BB4FF03753B06126B
:1009530005CEFC1205CEFD1205CEFE1205CEFF78A4
:100963003102015A790AA2D5200314300509B910BE
:10097300020404B9080104A2D52006025001042090
:1009830002689202B53A005034C0E07F2030031968
:100993007F30A20272067205500F1209C0C202C252
:1009A30006C205C2087F30800F300503E9C0E0129C
:1009B3000609300503D0E0F9D0E0B53ACC3005178D
:1009C3007F30B9100C1206097F583004077F7880F6
:1009D30003B908031206093002057F2D0206097FB9
:1009E300202008F87F2B2006F322920280CF7F007D
:1009F300B4070050052431F8E6FF22286E756C6CAD
:100A03002900D2011205CE3001F8C201783A30D55F
:100A13000108F60206742D504349581205CE2403EB
:100A2300B405004001E4900A19931205FA743A12CE
:0A0A330005FAD203753A04020846E2
:1000E100E9D2E7C933E833F892D5EDD2E7CD33EC65
:0700F10033FC5002B2D522DE
:1000F800EC30E7100FBF000C0EBE00080DBD000469
:100108000BEB6014A2D5EB13FCED92E7FD2274FF14
:10011800FCFDFEFF22E480F8A2D574FF13FC7D806D
:03012800E480EF81
:10012B00F920E72824F950037907E4F42402FB189B
:10013B00DBFDE624FB5014E9600DE4F618E604F64B
:0F014B00B40A08E4F6D9F57401F60A22C2D522E7
:10015A00ED33EC3392D5FA602AB4FF33EDC2E77B74
:10016A00FF60067A01797FE4227A01798820D50432
:10017A007A017983224E614E002B494E46002D4961
:10018A004E4600E47A08F608DAFC7B00740722E897
:10019A00C0E0ECC0E0EDC0E0EEC0E0EFC0E0EA7520
:1001AA00F010A4CAABF075F04DA42BFBE435F0FCBB
:1001BA00EA2410FAEB34C5FBEC34D9FCEDC2E7FFB4
:1001CA0075F056A4F42411C5F0F434C58FF0A42AAE
:1001DA00E5F03BE43CF620E71412048BD0E0FFD0B4
:1001EA00E0FED0E0FDD0E0FC1200068014F4041218
:1001FA00048BD0E0FFD0E0FED0E0FDD0E0FC12039B
:10020A0055D0E0F8E6FAEDD2E7CD33EC332482FBA1
:10021A00E4C3CF33CFCE33CECD33CD33DBF37B073D
:10022A0075F00A846004F6081B0AE5F0F6088FF0F8
:10023A00740AA4FFACF08EF0740AA42CFEACF05041
:10024A00010C8DF0740AA42CFDE435F0F608DBDE0F
:03025A0074072204
:10025D00020116E86480F8E933E83360110460F0B8
:10026D00ED33EC337009E8FCE9FDEAFEEBFF220407
:10027D0060DED3EB9FEA9EE99DE8C2E78CF0C2F702
:10028D0095F0400CE8CCF8E9CDF9EACEFAEBCFFBCE
:10029D001200E185D0F05804700320D5B3E8047046
:1002AD00075002B2D502012092D5EC0460F7E4CCE0
:1002BD00C0E0C398F8603B94186008400DD0E0FB97
:1002CD000200F8E4FBFAC9FC8028E830E406E4C932
:1002DD00FBE4CAFCE830E305E4C9CACBFCE85407EB
:1002ED006010F8C3E913F9EA13FAEB13FBEC13FCF6
:1002FD00D8F130F52FC3E49CFCEF9BFFEE9AFEED99
:10030D0099FDD0E0FBEF4E4D4C701222DB03020144
:10031D001DEC2CFCEF33FFEE33FEED33FDED30E73E
:10032D00EB0200F8EF2BFFEE3AFEED39FDD0E0FBCE
:10033D0050130BBB0003020120ED13FDEE13FEEF76
:08034D0013FFEC13FC0200F8A1
:10035500EC4D6011E8497017ED33EC3304600DE4A2
:10036500FCFFFEFD22E933E8330470F802011612A2
:1003750000E158046009E4CC2481500628500902A4
:10038500012028400302011DC0E0EB4A7044B980FA
:1003950006D0E0FB02010CEF4E701CBD8008EBFFA0
:1003A500EAFEE9FD80EBE98DF0A4FEE5F002043EEE
:1003B500E9CDF9EAFEEBFFEF89F0A4FCE5F0CE8983
:1003C500F0A42EFFE435F0CD89F0A42DFEE435F040
:1003D5008067EF4E7005BD80D780C3EF8BF0A4AC6E
:1003E500F0EE8BF0A42CFCE435F0F8EF8AF0A42CA9
:1003F500E5F038FCE433CB8DF0A42CFCE5F03BF8BC
:10040500EE8AF0A42CFCE5F038F8E433CF89F0A4AB
:100415002CFCE5F038CF3400CE89F0A42FFFE5F0B1
:100425003EFEE433C98DF0A42EFEE5F039CD8AF009
:10043500A42FFFE5F03EFEE43DFD33D0E0FB500781
:100445000BBB000F020120EC2CFCEF33FFEE33FE5B
:06045500ED33FD0200F88A
:10045B003F8000004120000042C80000447A0000A9
:10046B00461C400047C35000497424004B1896802B
:10047B004CBEBC205A0E1BCA6753C21C749DC5AE22
:10048B00FB60065407601C23231204B9EB5438603D
:10049B00091204A51204B4120355ECF8EDF9EEFAA7
:1004AB00EFCB22EB1204B480F1543803241C9004DC
:1004BB005BFE93FC0EEE93FD0EEE930ECE93FF229E
:03000000020D15D9
:0C0D1500787FE4F6D8FD758150020A3D9D
:1004CB00BB010689828A83E0225002E722BBFE022F
:0904DB00E32289828A83E4932262
:1004E400BB010CE58229F582E5833AF583E02250CD
:1004F40006E92582F8E622BBFE06E92582F8E22217
:0D050400E58229F582E5833AF583E4932230
:10051100BB010689828A83F0225002F722BBFE01C9
:02052100F322C3
:10052300EF8DF0A4A8F0CF8CF0A428CE8DF0A42EEC
:02053300FE22A6
:10053500BC000BBE0029EF8DF084FFADF022E4CCAA
:10054500F875F008EF2FFFEE33FEEC33FCEE9DEC73
:10055500984005FCEE9DFE0FD5F0E9E4CEFD22EDB9
:10056500F8F5F0EE8420D21CFEADF075F008EF2F03
:10057500FFED33FD4007985006D5F0F222C398FDF4
:050585000FD5F0EA2291
:0E058A00C3E49FFFE49EFEE49DFDE49CFC2282
:10059800FAE6FB0808E6F925F0F618E6CA3AF62264
:1005A800D083D082F8E4937012740193700DA3A3E2
:1005B80093F8740193F5828883E4737402936860F6
:0605C800EFA3A3A380DFF6
:100B9800EFB40A07740D120BA3740A309811A899C0
:100BA800B8130CC2983098FDA899C298B811F630BD
:070BB80099FDC299F5992295
:00000001FF
