:0B0466004D61747269784B65793A00B3
:100386001204377BFF7A0479667D017F011203AE82
:100396001202208F22E52260F7FB7A00750C027D9F
:0803A600017F021203EF80E861
:10042200EF1FAC0670011E4C600A7D027CC7DCFE29
:04043200DDFC80EC81
:0104360022A3
:06044B00C2A58F80D2A7BC
:080451007F027EEFDEFEDFFCFE
:010459002280
:0A047100C2A612044BC2A7020451F8
:1003D100CFCDCFCECCCE1201CB7C007D0A1201CB8A
:0403E100ED2430FFD8
:0A03E500D2A612044BC2A702045175
:10040C00AE07BE0104ED148006BE0209ED243F4484
:06041C0080FF12047122B2
:100437007F381204717F0C1204717F061204717FDA
:040447000102047139
:0A047B00AC0312040CAF040203E509
:0603AE008B088A09890A90
:1003B40012040CE4FDAB08AA09A90A8D8275830016
:0C03C40012018CFF60061203E50D80E9B9
:0103D000220A
:0C0353007F0AEA24FFFDE434FFFC7E007A
:08035F008E0D8F0E8C0F8D1026
:100367007F017E00E4FBEBC39510E50F6480F87412
:0E0377008098500AAC0DAD0E1201B90B80E853
:010385002255
:0403EF008A0A8B0BE0
:1003F30012040CAA0CEAD39400400D120353AC0A66
:08040300AD0B1203D11A80EDCC
:01040B0022CE
:1002A80012040CC3EA64809480400B7F2B1203E590
:1002B8008A168B17800E7F2D1203E5C3E49BF51772
:1002C800E49AF516AA15EAD39400400D120353AC2C
:0902D80016AD171203D11A80EDD6
:0102E10022FA
:0402E2008A1A8B1BCE
:1002E60012040CAA1CEAD3940040297F101203556D
:1002F600AC1AAD1BCFCDCFCECCCE1201CBEF540F67
:10030600FEC3940AEE5004243080022437FF120301
:04031600E51A80D193
:01031A0022C0
:04031B008A1F8B208A
:10031F0012040CAA21EAD394004028EA24FFFDE43A
:10032F0034FFFC7F027E0012035FAC1FAD20CFCDE8
:10033F00CFCECCCE1201CBEF54012430FF1203E508
:03034F001A80D23F
:010352002288
:10000300E4F5237590FFC2972093137F14FE120427
:10001300223093FD7F147E00120422752301209267
:10002300147F147E001204223092FD7F147E00128E
:1000330004227523022091147F147E0012042230BF
:1000430091FD7F147E001204227523032090147FF8
:10005300147E001204223090FD7F147E00120422CD
:100063007523047590FFC2962093147F147E0012AB
:1000730004223093FD7F147E001204227523052091
:1000830092147F147E001204223092FD7F147E00AE
:100093001204227523062091147F147E0012042279
:1000A3003091FD7F147E00120422752307209014E3
:1000B3007F147E001204223090FD7F147E00120410
:1000C300227523087590FFC2952093147F147E0038
:1000D3001204223093FD7F147E001204227523093B
:1000E3002092147F147E001204223092FD7F147E2E
:1000F3000012042275230A2091147F147E00120437
:10010300223091FD7F147E0012042275230B209070
:10011300147F147E001204223090FD7F147E00129F
:10012300042275230C7590FFC2942093147F147ED0
:10013300001204223093FD7F147E001204227523E3
:100143000D2092147F147E001204223092FD7F143E
:100153007E0012042275230E2091147F147E001258
:1001630004223091FD7F147E0012042275230F2098
:1001730090147F147E001204223090FD7F147E00C1
:08018300120422752310AF23C2
:01018B002251
:10022000E4F508F50975900FE590640F60777F0A93
:100230007E00120422E590640F606A75900FAF9003
:10024000EF24F5601024FE6011146013240770126F
:10025000750901800D750902800875090380037511
:1002600009047590F0AF90EF2450601124E0601104
:1002700024F0601124707013850909800E740480C5
:100280000674088002740C2509F509C3E50864802A
:1002900094B25011E59064F0600B7F0A7E00120466
:0702A00022050880E6AF090A
:0102A7002234
:0300000002045A9D
:0C045A00787FE4F6D8FD7581230203864C
:10018C00BB010CE58229F582E5833AF583E0225028
:10019C0006E92582F8E622BBFE06E92582F8E22272
:0D01AC00E58229F582E5833AF583E493228C
:1001B900EF8DF0A4A8F0CF8CF0A428CE8DF0A42E5A
:0201C900FE2214
:1001CB00BC000BBE0029EF8DF084FFADF022E4CC18
:1001DB00F875F008EF2FFFEE33FEEC33FCEE9DECE1
:1001EB00984005FCEE9DFE0FD5F0E9E4CEFD22ED27
:1001FB00F8F5F0EE8420D21CFEADF075F008EF2F71
:10020B00FFED33FD4007985006D5F0F222C398FD61
:05021B000FD5F0EA22FE
:00000001FF
