:1002C4001203CC1203BA120381EF60491203C98FDF
:1002D4001FE51F24F4601124F4601224BA6013246F
:1002E400487012E4F51E800D751E018008751E020B
:1002F4008003751E03E51E14600E14600F14601055
:1003040024037011E4FF800A7F3280067F4B800251
:0E0314007F641203CFAD1E7F011201F680A898
:10000600EF1FAC0670011E4C600A7D027CC7DCFE49
:04001600DDFC80ECA1
:01001A0022C3
:10026300E4F52220B1137F14FE12000630B1FD7FA6
:10027300147E0012000675220120B0147F147E0044
:1002830012000630B0FD7F147E00120006752202B4
:1002930020B2147F147E0012000630B2FD7F147E5C
:1002A3000012000675220320B3147F147E0012008F
:1002B3000630B3FD7F147E00120006752204AF22C0
:0102C3002218
:0C0374000A143F065B4F666D7D077F6F2B
:1001F600EF14B40800505490020B75F003A4C583A5
:1002060025F0C5837302022302022702022B020293
:100216002F02023302023B02024302024BD2A480A7
:100226000ED2A48012D2A48016D2A4801AC2A4D25E
:10023600A3D2A28016C2A4D2A3C2A2800EC2A4C216
:10024600A3D2A28006C2A4C2A3C2A274142DF8E649
:0D025600F5807F017E00120006E4F5802295
:10034D0053890F438910758B9C758DFFC28FD28E8B
:07035D00D2ABD2AFC2BB22FC
:0B039B00D288C289D2A8D2AFD2B8220B
:0603BA0012036402039B24
:0D038100E5086006E4F5087F01227F0022F8
:0D038E00E5136006E4F5137F01227F0022D5
:0303C600AF112252
:0303C900AF102250
:0300030002001EDA
:10001E00C0E0C0F0C083C082C0D075D000C000C0A8
:10002E0001C002C003C004C005C006C007E50D70C4
:10003E000CFFFE1203A67F011203C08049E50D647A
:10004E000170491203B18E0E8F0FE4FFFE1203A64C
:10005E00D3E50F94A6E50E942E4010E50F948EE591
:10006E000E94325006750D0202014FD3E50F948C9B
:10007E00E50E94264010E50F9474E50E942A500672
:10008E00751301020147750D0102014FE50D640262
:10009E00600302014F1203B18E0E8F0FE4FFFE12AA
:1000AE0003A6D3E50F946CE50E9402402CE50F9455
:1000BE0054E50E94065022E512131313541F24090F
:1000CE00F8C000E6FFE5125407FE7401A80608808A
:1000DE0002C333D8FCF45F8034D3E50F94D6E50E1B
:1000EE0094064030E50F94BEE50E940A5026E512B4
:1000FE00131313541F2409F8C000E6FFE51254072A
:10010E00FE7401A806088002C333D8FC4FD000F657
:10011E0005128006751200750D01E512C39420407C
:10012E0020751200E50AF4B5090FE50CF4B50B09BC
:10013E00850911850B10750801E4FF1203C0750DBA
:10014E0000D007D006D005D004D003D002D001D005
:0C015E0000D0D0D082D083D0F0D0E032AE
:100364005389F0438901E4F58AF58CC28DC28C224D
:0B03A600AD07AC068C8CAF058F8A22DF
:0903B100AF8CEFFEAD8AEDFF22D6
:0603C000EF24FF928C22E5
:0303CC0002034DDC
:0303CF008F212259
:03001B00020322BB
:10032200C0E0C0F0C0D0758BA4758DFF0520E5201C
:1003320075F0648485F020E520C395215004D290A5
:0B0342008002C290D0D0D0F0D0E0329A
:0300000002016A90
:0C016A00787FE4F6D8FD7581220201B117
:100176000202C4E493A3F8E493A34003F68001F2D9
:1001860008DFF48029E493A3F85407240CC8C3338A
:10019600C4540F4420C8834004F456800146F6DF59
:1001A600E4800B0102040810204080900374E47E72
:1001B600019360BCA3FF543F30E509541FFEE4934E
:1001C600A360010ECF54C025E060A840B8E493A315
:1001D600FAE493A3F8E493A3C8C582C8CAC583CA40
:1001E600F0A3C8C582C8CAC583CADFE9DEE780BEF8
:01038000007C
:00000001FF
