:0D02FF0041444A20204E5443202052470025
:100117001202DC7BFF7A0279FF7D017F0112025315
:100127007F9C1200978E228F23750C03AB23AA2284
:100137007D017F021202947FDC1200978E228F23AB
:10014700750C03AB23AA227D067F021202947FACB3
:100157001200978E228F23750C03AB23AA227D0BE7
:0E0167007F021202947F0A7E001202C780B24D
:1002C700EF1FAC0670011E4C600A7D027CC7DCFE86
:0402D700DDFC80ECDE
:0102DB002200
:0602F000C2A58F80D2A719
:0802F6007F027EEFDEFEDFFC5B
:0102FE0022DD
:0A031800C2A61202F0C2A70202F60C
:10027600CFCDCFCECCCE1200427C007D0A120042FA
:04028600ED2430FF34
:0A028A00D2A61202F0C2A70202F68B
:1002B100AE07BE0104ED148006BE0209ED243F44E1
:0602C10080FF1203182269
:1002DC007F381203187F0C1203187F061203187F45
:0402EC0001020318F0
:0A032200AC031202B1AF0402028A1C
:060253008B088A09890AEC
:100259001202B1E4FDAB08AA09A90A8D82758300CF
:0C026900120003FF600612028A0D80E9FB
:010275002266
:0C0220007F0AEA24FFFDE434FFFC7E00AE
:08022C008E0D8F0E8C0F8D105A
:100234007F017E00E4FBEBC39510E50F6480F87446
:0E0244008098500AAC0DAD0E1200300B80E811
:010252002289
:040294008A0A8B0B3C
:100298001202B1AA0CEAD39400400D120220AC0A53
:0802A800AD0B1202761A80ED85
:0102B000222B
:100175001202B1C3EA64809480400B7F2B12028A7D
:100185008A168B17800E7F2D12028AC3E49BF51702
:10019500E49AF516AA15EAD39400400D120220AC94
:0901A50016AD171202761A80ED66
:0101AE00222E
:0401AF008A1A8B1B02
:1001B3001202B1AA1CEAD3940040297F1012022232
:1001C300AC1AAD1BCFCDCFCECCCE120042EF540F25
:1001D300FEC3940AEE5004243080022437FF120237
:0401E3008A1A80D123
:0101E70022F5
:0401E8008A1F8B20BF
:1001EC001202B1AA21EAD394004028EA24FFFDE4CC
:1001FC0034FFFC7F027E0012022CAC1FAD20CFCD51
:10020C00CFCECCCE120042EF54012430FF12028A22
:03021C001A80D273
:01021F0022BC
:020097008F08D0
:10009900C2B5C2B6E4F50974807E00A809088006D5
:1000A900CEA2E713CE13D8F8FFEF550824FF92B478
:1000B900D2B67F017E001202C7C2B60509E509C39F
:1000C900940840D3E4F509D2B67F017E001202C735
:1000D900C2B630B714E47E80A809088005CEC313E0
:1000E900CE13D8F9420BEE420A0509E509C394106B
:1000F90040D5E50830E306E50AFF7E0022E50AC49B
:0D010900F854F0C868FEE50BC4540F48FF21
:0101160022C6
:0300000002030CEC
:0C030C00787FE4F6D8FD7581230201170C
:10000300BB010CE58229F582E5833AF583E02250B2
:1000130006E92582F8E622BBFE06E92582F8E222FC
:0D002300E58229F582E5833AF583E4932216
:10003000EF8DF0A4A8F0CF8CF0A428CE8DF0A42EE4
:02004000FE229E
:10004200BC000BBE0029EF8DF084FFADF022E4CCA2
:10005200F875F008EF2FFFEE33FEEC33FCEE9DEC6B
:10006200984005FCEE9DFE0FD5F0E9E4CEFD22EDB1
:10007200F8F5F0EE8420D21CFEADF075F008EF2FFB
:10008200FFED33FD4007985006D5F0F222C398FDEC
:050092000FD5F0EA2289
:00000001FF
