:10063C001206561206E41206F012066DE50A700553
:0A064C0012053580F71206DC80F27B
:03001B0002016A75
:10016A00C0E0C0F0C083C082C0D075D000C000C05B
:0D017A0001C002C003C004C005C006C007DC
:10018700758DFC758B17056FE56F7002056EC3944F
:10019700F4E56E94014011756E00756F00E50F6010
:1001A70007E50A7003120392E50E601C0571E571FD
:1001B70070020570B2A5C394C8E570940040097534
:1001C7007000757100750E00E50B601C0573E57313
:1001D70070020572B2A5C394E8E5729403400975ED
:0801E7007200757300750B0036
:1001EF00D007D006D005D004D003D002D001D00064
:0B01FF00D0D0D082D083D0F0D0E0320E
:1003FA002028120100000000000000000000000098
:10040A0000000000000000000000000000000000E2
:10041A00000000000000000000000020283A01004F
:10042A0000000000000000000000000000000000C2
:10043A0000000000000000000000000000000000B2
:06044A00000000000000AC
:10066D00750C02750D02751201753A0112056D7545
:03067D000F012248
:100321008D7AEF14B40800506790033875F003A478
:10033100C58325F0C583730203500203580203608D
:10034100020368020370020378020380020388E556
:100351007A14FF7D808036E57A14FF7D40802EE59A
:100361007A14FF7D208026E57A14FF7D10801EE53A
:100371007A14FF7D088016E57A14FF7D04800EE56E
:100381007A14FF7D028006E57A14FF7D01120618BA
:010391002249
:1005CD00E4F579E579C3950C501574122579F8E6A3
:1005DD00FF743A2579F8E6FD120321057980E4AD23
:0605ED0009AF0802032122
:10039200E50C14FFEFD39400401B74112FF8E6FE16
:1003A20074122FF8A60674392FF8E6FE743A2FF865
:1003B200A6061F80DFE50D14601714602114602B60
:1003C200240370331512E512C39401502A751208E2
:1003D20022053AE53AD39408401D753A01220512E6
:1003E200E512D39408401075120122153AE53AC37A
:0703F20094015003753A0865
:0103F90022E1
:1004F400E4F5791206A3EF60351206F88F11E511C1
:10050400B41803757901E511B45203757902E51144
:10051400B40803757903E511B45A03757904E51138
:10052400B41C03757905E511B44503757906AF79F3
:0105340022A4
:10045100E510605124FE601A14601F1460261460B8
:100461002D1460372405703DE50D64026037E4F515
:100471000D22E50D602F750D0222E50D6401602549
:10048100750D0322E50D6403601B750D0122E50F57
:1004910070047F0180027F008F0F22E50A6006123F
:0604A100066DE4F50A22DD
:0806DC001204F48F1002045116
:10056D001204A77411250CF8E67C002FFFEC3EFE5B
:10057D007D08120296ED04F5081204A77439250CB6
:10058D00F8E67C002FFFEC3EFE7D08120296ED048E
:03059D00F509223B
:10068000E512B5080DE53AB50908050C12056D75BA
:030690000E012236
:1005F3007F04EFC3950C501C74122FF8E6B512114B
:10060300743A2FF8E6B53A09750B017580FF750A40
:04061300010F80DE75
:0106170022C0
:100535001204A71204511205CD1205F312068012FA
:1005450004F48F10E4F578E578C3950C501974120E
:100555002578F8E6B5080C743A2578F8E6B5090368
:0705650012056D057880E02E
:01056C00226C
:10000600EF1FAC0670011E4C600A7D027CC7DCFE49
:04001600DDFC80ECA1
:01001A0022C3
:0205A000AD07A5
:1005A200E4FB74807E00A803088006CEA2E713CE87
:1005B20013D8F8FFEDF582EF558224FF92B4D2B63C
:0A05C200C2B60BBB08DCD2B5C2B50F
:0105CC00220C
:0506F000C2B6C2B522F4
:10061800AE05AC07AF061205A0AF047480A80708A2
:100628008002C313D8FCF4F5807F017E0012000617
:040638007580FF22A8
:1006560053890F438910758B66758DFCC28FD28EB8
:07066600D2ABD2AFC2BB22F0
:0B06BD00D288C289D2A8D2AFD2B822E6
:0606E4001206930206BDA0
:0D06A300E5626006E4F5627F01227F00221F
:0D06B000E56D6006E4F56D7F01227F0022FC
:0306F500AF6B22C6
:0306F800AF6A22C4
:0300030002001EDA
:10001E00C0E0C0F0C083C082C0D075D000C000C0A8
:10002E0001C002C003C004C005C006C007E567706A
:10003E000CFFFE1206C87F011206EA8049E56764CE
:10004E000170491206D38E688F69E4FFFE1206C84E
:10005E00D3E56994A6E568942E4010E569948EE583
:10006E00689432500675670202014FD3E569948C8D
:10007E00E56894264010E5699474E568942A500664
:10008E00756D0102014775670102014FE567640254
:10009E00600302014F1206D38E688F69E4FFFE12D1
:1000AE0006C8D3E569946CE5689402402CE5699422
:1000BE0054E56894065022E56C131313541F246301
:1000CE00F8C000E6FFE56C5407FE7401A806088030
:1000DE0002C333D8FCF45F8034D3E56994D6E56867
:1000EE0094064030E56994BEE568940A5026E56CA6
:1000FE00131313541F2463F8C000E6FFE56C540776
:10010E00FE7401A806088002C333D8FC4FD000F657
:10011E00056C8006756C00756701E56CC394204014
:10012E0020756C00E564F4B5630FE566F4B56509FA
:10013E0085636B85656A756201E4FF1206EA756771
:10014E0000D007D006D005D004D003D002D001D005
:0C015E0000D0D0D082D083D0F0D0E032AE
:100693005389F0438901E4F58AF58CC28DC28C221B
:0B06C800AD07AC068C8CAF058F8A22BA
:0906D300AF8CEFFEAD8AEDFF22B1
:0606EA00EF24FF928C22B8
:0300000002020AEF
:0C020A00787FE4F6D8FD75817A0202517D
:10029600C2D5EC30E709B2D5E4C39DFDE49CFCEE83
:1002A60030E715B2D5E4C39FFFE49EFE1202CCC32D
:1002B600E49DFDE49CFC80031202CC30D507C3E428
:0602C6009FFFE49EFE22F2
:1004A700AC74AD75AE76AF777810EC4D4E4F7004E7
:1004B7007CA57DA5C3EC13FCED13FDEE13FEEF1336
:1004C700FF5010EC64CCFCED644CFDEE644EFEEF87
:1004D70064CEFFD8DF8C748D758E768F77EE547F60
:0D04E700FE228E748F7574A5F576F57722D0
:1002160002063CE493A3F8E493A34003F68001F2BC
:1002260008DFF48029E493A3F85407240CC8C333E9
:10023600C4540F4420C8834004F456800146F6DFB8
:10024600E4800B01020408102040809003FAE47E4B
:10025600019360BCA3FF543F30E509541FFEE493AD
:10026600A360010ECF54C025E060A840B8E493A374
:10027600FAE493A3F8E493A3C8C582C8CAC583CA9F
:10028600F0A3C8C582C8CAC583CADFE9DEE780BE57
:0104500000AB
:1002CC00BC000BBE0029EF8DF084FFADF022E4CC16
:1002DC00F875F008EF2FFFEE33FEEC33FCEE9DECDF
:1002EC00984005FCEE9DFE0FD5F0E9E4CEFD22ED25
:1002FC00F8F5F0EE8420D21CFEADF075F008EF2F6F
:10030C00FFED33FD4007985006D5F0F222C398FD5F
:05031C000FD5F0EA22FC
:00000001FF
